{
  "contractName": "StringStorage",
  "abi": [
    {
      "inputs": [
        {
          "internalType": "string",
          "name": "_initialString",
          "type": "string"
        }
      ],
      "stateMutability": "nonpayable",
      "type": "constructor"
    },
    {
      "anonymous": false,
      "inputs": [
        {
          "indexed": true,
          "internalType": "address",
          "name": "sender",
          "type": "address"
        },
        {
          "indexed": false,
          "internalType": "string",
          "name": "value",
          "type": "string"
        }
      ],
      "name": "StringStored",
      "type": "event"
    },
    {
      "inputs": [
        {
          "internalType": "string",
          "name": "_newString",
          "type": "string"
        }
      ],
      "name": "storeString",
      "outputs": [],
      "stateMutability": "nonpayable",
      "type": "function"
    },
    {
      "inputs": [],
      "name": "getString",
      "outputs": [
        {
          "internalType": "string",
          "name": "",
          "type": "string"
        }
      ],
      "stateMutability": "view",
      "type": "function",
      "constant": true
    }
  ],
  "bytecode": "0x60806040523480156200001157600080fd5b506040516200088d3803806200088d8339818101604052810190620000379190620001c9565b80600090805190602001906200004f929190620000a7565b503373ffffffffffffffffffffffffffffffffffffffff167fca1dee582f4a8505c70ed6d26c4f70752c41ba158875811c950bd46e69f2ab5b826040516200009891906200024f565b60405180910390a250620003d1565b828054620000b5906200032c565b90600052602060002090601f016020900481019282620000d9576000855562000125565b82601f10620000f457805160ff191683800117855562000125565b8280016001018555821562000125579182015b828111156200012457825182559160200191906001019062000107565b5b50905062000134919062000138565b5090565b5b808211156200015357600081600090555060010162000139565b5090565b60006200016e6200016884620002a7565b62000273565b9050828152602081018484840111156200018757600080fd5b62000194848285620002f6565b509392505050565b600082601f830112620001ae57600080fd5b8151620001c084826020860162000157565b91505092915050565b600060208284031215620001dc57600080fd5b600082015167ffffffffffffffff811115620001f757600080fd5b62000205848285016200019c565b91505092915050565b60006200021b82620002da565b620002278185620002e5565b935062000239818560208601620002f6565b6200024481620003c0565b840191505092915050565b600060208201905081810360008301526200026b81846200020e565b905092915050565b6000604051905081810181811067ffffffffffffffff821117156200029d576200029c62000391565b5b8060405250919050565b600067ffffffffffffffff821115620002c557620002c462000391565b5b601f19601f8301169050602081019050919050565b600081519050919050565b600082825260208201905092915050565b60005b8381101562000316578082015181840152602081019050620002f9565b8381111562000326576000848401525b50505050565b600060028204905060018216806200034557607f821691505b602082108114156200035c576200035b62000362565b5b50919050565b7f4e487b7100000000000000000000000000000000000000000000000000000000600052602260045260246000fd5b7f4e487b7100000000000000000000000000000000000000000000000000000000600052604160045260246000fd5b6000601f19601f8301169050919050565b6104ac80620003e16000396000f3fe608060405234801561001057600080fd5b50600436106100365760003560e01c80631bb8305d1461003b57806389ea642f14610057575b600080fd5b6100556004803603810190610050919061027a565b610075565b005b61005f6100dd565b60405161006c91906102f4565b60405180910390f35b806000908051906020019061008b92919061016f565b503373ffffffffffffffffffffffffffffffffffffffff167fca1dee582f4a8505c70ed6d26c4f70752c41ba158875811c950bd46e69f2ab5b826040516100d291906102f4565b60405180910390a250565b6060600080546100ec906103d5565b80601f0160208091040260200160405190810160405280929190818152602001828054610118906103d5565b80156101655780601f1061013a57610100808354040283529160200191610165565b820191906000526020600020905b81548152906001019060200180831161014857829003601f168201915b5050505050905090565b82805461017b906103d5565b90600052602060002090601f01602090048101928261019d57600085556101e4565b82601f106101b657805160ff19168380011785556101e4565b828001600101855582156101e4579182015b828111156101e35782518255916020019190600101906101c8565b5b5090506101f191906101f5565b5090565b5b8082111561020e5760008160009055506001016101f6565b5090565b600061022561022084610347565b610316565b90508281526020810184848401111561023d57600080fd5b610248848285610393565b509392505050565b600082601f83011261026157600080fd5b8135610271848260208601610212565b91505092915050565b60006020828403121561028c57600080fd5b600082013567ffffffffffffffff8111156102a657600080fd5b6102b284828501610250565b91505092915050565b60006102c682610377565b6102d08185610382565b93506102e08185602086016103a2565b6102e981610465565b840191505092915050565b6000602082019050818103600083015261030e81846102bb565b905092915050565b6000604051905081810181811067ffffffffffffffff8211171561033d5761033c610436565b5b8060405250919050565b600067ffffffffffffffff82111561036257610361610436565b5b601f19601f8301169050602081019050919050565b600081519050919050565b600082825260208201905092915050565b82818337600083830152505050565b60005b838110156103c05780820151818401526020810190506103a5565b838111156103cf576000848401525b50505050565b600060028204905060018216806103ed57607f821691505b6020821081141561040157610400610407565b5b50919050565b7f4e487b7100000000000000000000000000000000000000000000000000000000600052602260045260246000fd5b7f4e487b7100000000000000000000000000000000000000000000000000000000600052604160045260246000fd5b6000601f19601f830116905091905056fea2646970667358221220e57724386f0d8a99d503726b05e127b46adfc498e1da1e3a1a7b7a4ae46e5de664736f6c63430008000033",
  "immutableReferences": {},
  "source": "// SPDX-License-Identifier: MIT\r\npragma solidity ^0.8.0;\r\n\r\ncontract StringStorage {\r\n    string private storedString;\r\n\r\n    event StringStored(address indexed sender, string value);\r\n\r\n    constructor(string memory _initialString) {\r\n        storedString = _initialString;\r\n        emit StringStored(msg.sender, _initialString);\r\n    }\r\n\r\n    function storeString(string memory _newString) public {\r\n        storedString = _newString;\r\n        emit StringStored(msg.sender, _newString);\r\n    }\r\n\r\n    function getString() public view returns (string memory) {\r\n        return storedString;\r\n    }\r\n}\r\n",
  "sourcePath": "C:\\Users\\PESHDA\\Documents\\Peshel Projects\\LITS _ Pocketbase\\livestock\\backend\\blockchainn\\contracts\\StringStorage.sol",
  "compiler": {
    "name": "solc",
    "version": "0.8.0+commit.c7dfd78e.Emscripten.clang"
  },
  "schemaVersion": "3.4.16",
  "updatedAt": "2025-04-29T11:34:05.243Z",
  "networkType": "ethereum",
  "devdoc": {
    "kind": "dev",
    "methods": {},
    "version": 1
  },
  "userdoc": {
    "kind": "user",
    "methods": {},
    "version": 1
  }
}