{
  "contractName": "DataVerification",
  "abi": [
    {
      "anonymous": false,
      "inputs": [
        {
          "indexed": false,
          "internalType": "string",
          "name": "documentId",
          "type": "string"
        },
        {
          "indexed": false,
          "internalType": "string",
          "name": "title",
          "type": "string"
        },
        {
          "indexed": false,
          "internalType": "string",
          "name": "contentHash",
          "type": "string"
        },
        {
          "indexed": false,
          "internalType": "address",
          "name": "owner",
          "type": "address"
        },
        {
          "indexed": false,
          "internalType": "uint256",
          "name": "timestamp",
          "type": "uint256"
        }
      ],
      "name": "DocumentStored",
      "type": "event"
    },
    {
      "anonymous": false,
      "inputs": [
        {
          "indexed": false,
          "internalType": "string",
          "name": "documentId",
          "type": "string"
        },
        {
          "indexed": false,
          "internalType": "string",
          "name": "title",
          "type": "string"
        },
        {
          "indexed": false,
          "internalType": "bool",
          "name": "verified",
          "type": "bool"
        }
      ],
      "name": "DocumentVerified",
      "type": "event"
    },
    {
      "inputs": [
        {
          "internalType": "string",
          "name": "_title",
          "type": "string"
        },
        {
          "internalType": "string",
          "name": "_contentHash",
          "type": "string"
        },
        {
          "internalType": "string",
          "name": "_documentId",
          "type": "string"
        }
      ],
      "name": "storeDocument",
      "outputs": [
        {
          "internalType": "bool",
          "name": "success",
          "type": "bool"
        }
      ],
      "stateMutability": "nonpayable",
      "type": "function"
    },
    {
      "inputs": [
        {
          "internalType": "string",
          "name": "_title",
          "type": "string"
        },
        {
          "internalType": "string",
          "name": "_contentHash",
          "type": "string"
        }
      ],
      "name": "verifyDocument",
      "outputs": [
        {
          "internalType": "bool",
          "name": "verified",
          "type": "bool"
        }
      ],
      "stateMutability": "nonpayable",
      "type": "function"
    },
    {
      "inputs": [
        {
          "internalType": "string",
          "name": "_title",
          "type": "string"
        }
      ],
      "name": "getDocumentByTitle",
      "outputs": [
        {
          "internalType": "string",
          "name": "title",
          "type": "string"
        },
        {
          "internalType": "string",
          "name": "contentHash",
          "type": "string"
        },
        {
          "internalType": "address",
          "name": "owner",
          "type": "address"
        },
        {
          "internalType": "uint256",
          "name": "timestamp",
          "type": "uint256"
        },
        {
          "internalType": "string",
          "name": "documentId",
          "type": "string"
        }
      ],
      "stateMutability": "view",
      "type": "function",
      "constant": true
    },
    {
      "inputs": [],
      "name": "getAllDocumentIds",
      "outputs": [
        {
          "internalType": "string[]",
          "name": "",
          "type": "string[]"
        }
      ],
      "stateMutability": "view",
      "type": "function",
      "constant": true
    },
    {
      "inputs": [],
      "name": "getDocumentCount",
      "outputs": [
        {
          "internalType": "uint256",
          "name": "",
          "type": "uint256"
        }
      ],
      "stateMutability": "view",
      "type": "function",
      "constant": true
    }
  ],
  "bytecode": "0x60806040523461001f57610011610024565b61143b610030823961143b90f35b61002a565b60405190565b600080fdfe60806040526004361015610013575b610601565b61001e60003561006d565b80631156948a146100685780633d1c227314610063578063a4ca650b1461005e578063c35e46c9146100595763f2d893e40361000e576105cb565b610510565b6103de565b61021f565b6101c4565b7c0100000000000000000000000000000000000000000000000000000000900490565b60405190565b600080fd5b600080fd5b60009103126100ab57565b61009b565b5190565b60209181520190565b60200190565b5190565b60209181520190565b60005b8381106100e4575050906000910152565b8060209183015181850152016100d3565b601f801991011690565b61011e61012760209361012c93610115816100c3565b938480936100c7565b958691016100d0565b6100f5565b0190565b9061013a916100ff565b90565b60200190565b90610157610150836100b0565b80926100b4565b9081610168602083028401946100bd565b926000915b83831061017c57505050505090565b9091929394602061019e61019883856001950387528951610130565b9761013d565b930193019193929061016d565b6101c19160208201916000818403910152610143565b90565b346101f4576101d43660046100a0565b6101f06101df6113d9565b6101e7610090565b918291826101ab565b0390f35b610096565b90565b610205906101f9565b9052565b919061021d906000602085019401906101fc565b565b3461024f5761022f3660046100a0565b61024b61023a6113ef565b610242610090565b91829182610209565b0390f35b610096565b600080fd5b600080fd5b600080fd5b7f4e487b7100000000000000000000000000000000000000000000000000000000600052604160045260246000fd5b9061029c906100f5565b810190811067ffffffffffffffff8211176102b657604052565b610263565b906102ce6102c7610090565b9283610292565b565b67ffffffffffffffff81116102ee576102ea6020916100f5565b0190565b610263565b90826000939282370152565b9092919261031461030f826102d0565b6102bb565b938185526020850190828401116103305761032e926102f3565b565b61025e565b9080601f8301121561035357816020610350933591016102ff565b90565b610259565b9190916040818403126103b157600081013567ffffffffffffffff81116103ac5783610385918301610335565b92602082013567ffffffffffffffff81116103a7576103a49201610335565b90565b610254565b610254565b61009b565b151590565b6103c4906103b6565b9052565b91906103dc906000602085019401906103bb565b565b3461040f5761040b6103fa6103f4366004610358565b9061114c565b610402610090565b918291826103c8565b0390f35b610096565b9060208282031261044557600082013567ffffffffffffffff81116104405761043d9201610335565b90565b610254565b61009b565b60209181520190565b61047261047b60209361048093610469816100c3565b9384809361044a565b958691016100d0565b6100f5565b0190565b73ffffffffffffffffffffffffffffffffffffffff1690565b6104a690610484565b90565b6104b29061049d565b9052565b91936104f66104eb61050d9795966104dd6105009560a088019088820360008a0152610453565b908682036020880152610453565b9560408501906104a9565b60608301906101fc565b6080818403910152610453565b90565b346105445761054061052b610526366004610414565b611284565b91610537959395610090565b958695866104b6565b0390f35b610096565b916060838303126105c657600083013567ffffffffffffffff81116105c15782610574918501610335565b92602081013567ffffffffffffffff81116105bc5783610595918301610335565b92604082013567ffffffffffffffff81116105b7576105b49201610335565b90565b610254565b610254565b610254565b61009b565b346105fc576105f86105e76105e1366004610549565b91610d31565b6105ef610090565b918291826103c8565b0390f35b610096565b600080fd5b600090565b905090565b61063561062c92602092610623816100c3565b9485809361060b565b938491016100d0565b0190565b90565b61064861064d916101f9565b610639565b9052565b6106616106689160209493610610565b809261063c565b0190565b610680610677610090565b92839283610651565b03902090565b61068f9161066c565b90565b90565b7f4e487b7100000000000000000000000000000000000000000000000000000000600052602260045260246000fd5b90600160028304921680156106e4575b60208310146106df57565b610695565b91607f16916106d4565b6106f890546106c4565b90565b90565b90565b61071561071061071a926106fb565b6106fe565b6101f9565b90565b60007f5469746c6520616c726561647920657869737473000000000000000000000000910152565b610752601460209261044a565b61075b8161071d565b0190565b6107759060208101906000818303910152610745565b90565b1561077f57565b610787610090565b7f08c379a0000000000000000000000000000000000000000000000000000000008152806107b76004820161075f565b0390fd5b6107c560c06102bb565b90565b52565b906107d59061049d565b9052565b906107e3906101f9565b9052565b906107f1906103b6565b9052565b6107fe9161066c565b90565b7f4e487b7100000000000000000000000000000000000000000000000000000000600052600060045260246000fd5b5190565b600052602060002090565b601f602091010490565b60020a0290565b9190600861086c91029161086660001984610849565b92610849565b9181191691161790565b61088a61088561088f926101f9565b6106fe565b6101f9565b90565b90565b91906108ab6108a66108b393610876565b610892565b908354610850565b9055565b600090565b6108ce916108c86108b7565b91610895565b565b5b8181106108dc575050565b806108ea60006001936108bc565b016108d1565b9190601f8111610900575b505050565b61090c61093193610834565b9060206109188461083f565b83019310610939575b61092a9061083f565b01906108d0565b3880806108fb565b915061092a81929050610921565b60020a900490565b906109609060001990600802610947565b191690565b8161096f9161094f565b906002021790565b90610981816100c3565b9067ffffffffffffffff8211610a43576109a58261099f85546106c4565b856108f0565b602090601f83116001146109da579180916109c9936000926109ce575b5050610965565b90555b565b909150015138806109c2565b601f198316916109e985610834565b9260005b818110610a2b57509160029391856001969410610a11575b505050020190556109cc565b610a21910151601f84169061094f565b9055388080610a05565b919360206001819287870151815501950192016109ed565b610263565b90610a5291610977565b565b610a5e905161049d565b90565b60010290565b90610a8673ffffffffffffffffffffffffffffffffffffffff91610a61565b9181191691161790565b610aa4610a9f610aa992610484565b6106fe565b610484565b90565b610ab590610a90565b90565b610ac190610aac565b90565b90565b90610adc610ad7610ae392610ab8565b610ac4565b8254610a67565b9055565b610af190516101f9565b90565b90610b0160001991610a61565b9181191691161790565b90610b20610b1b610b2792610876565b610892565b8254610af4565b9055565b610b3590516103b6565b90565b90610b4460ff91610a61565b9181191691161790565b610b57906103b6565b90565b90565b90610b72610b6d610b7992610b4e565b610b5a565b8254610b38565b9055565b90610c0e60a06005610c1494610ba260008201610b9c60008801610830565b90610a48565b610bbb60018201610bb560208801610830565b90610a48565b610bd460028201610bce60408801610a54565b90610ac7565b610bed60038201610be760608801610ae7565b90610b0b565b610c0660048201610c0060808801610830565b90610a48565b019201610b2b565b90610b5d565b565b90610c2091610b7d565b565b90565b600052602060002090565b7f4e487b7100000000000000000000000000000000000000000000000000000000600052603260045260246000fd5b5490565b610c6c81610c5f565b821015610c8757610c7e600191610c25565b91020190600090565b610c30565b9190610c9d57610c9b91610977565b565b610801565b9081549168010000000000000000831015610cd25782610cca916001610cd095018155610c63565b90610c8c565b565b610263565b90610d1d610d2f95979694610d0f608095610d01610d289560a088019088820360008a0152610453565b908682036020880152610453565b908482036040860152610453565b9660608301906104a9565b01906101fc565b565b91610d3a610606565b50610d73610d5a610d55610d5060018790610686565b610692565b6106ee565b610d6d610d676000610701565b916101f9565b14610778565b610de183610dd084610dc733610dbe42610db58993610dac600197610da3610d996107bb565b9b60008d016107c8565b60208b016107c8565b604089016107cb565b606087016107d9565b608085016107c8565b60a083016107e7565b610ddc600084906107f5565b610c16565b610df681610df160018690610686565b610a48565b610e0a610e036002610c22565b8290610ca2565b919091610e463342907f60c284e81612cab738fe57e95bc02b0db52ad6c5e48abf99fa0df115ada669bd95610e3d610090565b95869586610cd7565b0390a1600190565b9060009291805490610e69610e62836106c4565b80946100c7565b91600181169081600014610ec25750600114610e85575b505050565b610e929192939450610834565b916000925b818410610eaa5750500190388080610e80565b60018160209295939554848601520191019290610e97565b92949550505060ff1916825215156020020190388080610e80565b90610ee791610e4e565b90565b90610f0a610f0392610efa610090565b93848092610edd565b0383610292565b565b610f1590610eea565b90565b90565b5190565b60007f446f63756d656e74206e6f7420666f756e640000000000000000000000000000910152565b610f54601260209261044a565b610f5d81610f1f565b0190565b610f779060208101906000818303910152610f47565b90565b15610f8157565b610f89610090565b7f08c379a000000000000000000000000000000000000000000000000000000000815280610fb960048201610f61565b0390fd5b6001900490565b73ffffffffffffffffffffffffffffffffffffffff1690565b610fe9610fee91610fbd565b610fc4565b90565b610ffb9054610fdd565b90565b90565b61100d61101291610fbd565b610ffe565b90565b61101f9054611001565b90565b60ff1690565b61103461103991610fbd565b611022565b90565b6110469054611028565b90565b61105360c06102bb565b90565b906110ef6110e66005611067611049565b9461108061107760008301610eea565b600088016107c8565b61109861108f60018301610eea565b602088016107c8565b6110b06110a760028301610ff1565b604088016107cb565b6110c86110bf60038301611015565b606088016107d9565b6110e06110d760048301610eea565b608088016107c8565b0161103c565b60a084016107e7565b565b6110fa90611056565b90565b61110691610610565b90565b60200190565b90565b93929061114261114a93611134604093606089019089820360008b0152610453565b908782036020890152610453565b9401906103bb565b565b611154610606565b5061116961116460018390610686565b610f0c565b9161119761117e61117985610f18565b610f1b565b61119161118b6000610701565b916101f9565b11610f7a565b61123961123361120c61121b6111d56111e460206111bf6111ba60008c906107f5565b6110f1565b01516111c9610090565b928391602083016110fd565b60208201810382520382610292565b6111f66111f082610f1b565b91611109565b2094611200610090565b928391602083016110fd565b60208201810382520382610292565b61122d61122782610f1b565b91611109565b2061110f565b9161110f565b14919082916112747f589965d26716b6031c2497432d9a164676abfaebf45751a7ee9be126150305029361126b610090565b93849384611112565b0390a190565b606090565b600090565b6112fe6112ca6112c56113039361129961127a565b506112a261127a565b506112ab61127f565b506112b46108b7565b506112bd61127a565b506001610686565b610f0c565b6112f76112de6112d983610f18565b610f1b565b6112f16112eb6000610701565b916101f9565b11610f7a565b60006107f5565b6110f1565b9060008201519160208101519261131c60408301610a54565b92608061132b60608501610ae7565b930151919493929190565b606090565b5490565b67ffffffffffffffff81116113575760208091020190565b610263565b9061136e6113698361133f565b6102bb565b918252565b600052602060002090565b906113888261133b565b6113918161135c565b9261139f6020850191611373565b6000915b8383106113b05750505050565b6001602081926113bf85610f0c565b8152019201920191906113a3565b6113d69061137e565b90565b6113e1611336565b506113ec60026113cd565b90565b6113f76108b7565b50611402600261133b565b9056fea2646970667358221220aaea163e139bdf72ed8b9f6ef1b00c7c035c76032afa6a2f343da719702bd93664736f6c63430008150033",
  "immutableReferences": {},
  "source": "// SPDX-License-Identifier: MIT\npragma solidity ^0.8.17;\n\n/**\n * @title DataVerification\n * @dev Store and verify document hashes on the blockchain\n */\ncontract DataVerification {\n    // Structure to store document information\n    struct Document {\n        string title;\n        string contentHash;\n        address owner;\n        uint256 timestamp;\n        string documentId;\n        bool exists;\n    }\n\n    // Mapping from document ID to Document struct\n    mapping(string => Document) private documents;\n    \n    // Mapping from title to document ID\n    mapping(string => string) private titleToDocumentId;\n    \n    // Array to store all document IDs\n    string[] private documentIds;\n\n    // Events\n    event DocumentStored(string documentId, string title, string contentHash, address owner, uint256 timestamp);\n    event DocumentVerified(string documentId, string title, bool verified);\n\n    /**\n     * @dev Store a document's hash on the blockchain\n     * @param _title Title of the document\n     * @param _contentHash Hash of the document content\n     * @param _documentId Unique identifier for the document\n     * @return success Whether the operation was successful\n     */\n    function storeDocument(string memory _title, string memory _contentHash, string memory _documentId) public returns (bool success) {\n        // Check if title is already used\n        require(bytes(titleToDocumentId[_title]).length == 0, \"Title already exists\");\n        \n        // Store document information\n        documents[_documentId] = Document({\n            title: _title,\n            contentHash: _contentHash,\n            owner: msg.sender,\n            timestamp: block.timestamp,\n            documentId: _documentId,\n            exists: true\n        });\n        \n        // Update mappings and arrays\n        titleToDocumentId[_title] = _documentId;\n        documentIds.push(_documentId);\n        \n        // Emit event\n        emit DocumentStored(_documentId, _title, _contentHash, msg.sender, block.timestamp);\n        \n        return true;\n    }\n\n    /**\n     * @dev Verify if a document's hash matches the stored hash\n     * @param _title Title of the document\n     * @param _contentHash Hash to verify against\n     * @return verified Whether the hashes match\n     */\n    function verifyDocument(string memory _title, string memory _contentHash) public returns (bool verified) {\n        // Get document ID from title\n        string memory documentId = titleToDocumentId[_title];\n        \n        // Check if document exists\n        require(bytes(documentId).length > 0, \"Document not found\");\n        \n        // Get document from mapping\n        Document memory doc = documents[documentId];\n        \n        // Verify hash\n        bool isMatch = keccak256(abi.encodePacked(doc.contentHash)) == keccak256(abi.encodePacked(_contentHash));\n        \n        // Emit verification event\n        emit DocumentVerified(documentId, _title, isMatch);\n        \n        return isMatch;\n    }\n\n    /**\n     * @dev Get document information by title\n     * @param _title Title of the document\n     * @return title Title of the document\n     * @return contentHash Hash of the document content\n     * @return owner Address of the document owner\n     * @return timestamp Time when document was stored\n     * @return documentId Unique identifier for the document\n     */\n    function getDocumentByTitle(string memory _title) public view returns (\n        string memory title,\n        string memory contentHash,\n        address owner,\n        uint256 timestamp,\n        string memory documentId\n    ) {\n        string memory docId = titleToDocumentId[_title];\n        require(bytes(docId).length > 0, \"Document not found\");\n        \n        Document memory doc = documents[docId];\n        \n        return (\n            doc.title,\n            doc.contentHash,\n            doc.owner,\n            doc.timestamp,\n            doc.documentId\n        );\n    }\n\n    /**\n     * @dev Get all document IDs\n     * @return All document IDs\n     */\n    function getAllDocumentIds() public view returns (string[] memory) {\n        return documentIds;\n    }\n    \n    /**\n     * @dev Get document count\n     * @return Number of documents stored\n     */\n    function getDocumentCount() public view returns (uint256) {\n        return documentIds.length;\n    }\n}",
  "sourcePath": "/Users/munashenzira/Documents/Tendeko/smart_contract/contracts/DataVerification.sol",
  "compiler": {
    "name": "solc",
    "version": "0.8.21+commit.d9974bed.Emscripten.clang"
  },
  "schemaVersion": "3.4.16",
  "updatedAt": "2025-05-04T19:33:26.577Z",
  "networkType": "ethereum",
  "devdoc": {
    "details": "Store and verify document hashes on the blockchain",
    "kind": "dev",
    "methods": {
      "getAllDocumentIds()": {
        "details": "Get all document IDs",
        "returns": {
          "_0": "All document IDs"
        }
      },
      "getDocumentByTitle(string)": {
        "details": "Get document information by title",
        "params": {
          "_title": "Title of the document"
        },
        "returns": {
          "contentHash": "Hash of the document content",
          "documentId": "Unique identifier for the document",
          "owner": "Address of the document owner",
          "timestamp": "Time when document was stored",
          "title": "Title of the document"
        }
      },
      "getDocumentCount()": {
        "details": "Get document count",
        "returns": {
          "_0": "Number of documents stored"
        }
      },
      "storeDocument(string,string,string)": {
        "details": "Store a document's hash on the blockchain",
        "params": {
          "_contentHash": "Hash of the document content",
          "_documentId": "Unique identifier for the document",
          "_title": "Title of the document"
        },
        "returns": {
          "success": "Whether the operation was successful"
        }
      },
      "verifyDocument(string,string)": {
        "details": "Verify if a document's hash matches the stored hash",
        "params": {
          "_contentHash": "Hash to verify against",
          "_title": "Title of the document"
        },
        "returns": {
          "verified": "Whether the hashes match"
        }
      }
    },
    "title": "DataVerification",
    "version": 1
  },
  "userdoc": {
    "kind": "user",
    "methods": {},
    "version": 1
  }
}