{
  "contractName": "TendekoContractManagement",
  "abi": [
    {
      "anonymous": false,
      "inputs": [
        {
          "indexed": true,
          "internalType": "string",
          "name": "tenderID",
          "type": "string"
        },
        {
          "indexed": false,
          "internalType": "string",
          "name": "bidID",
          "type": "string"
        },
        {
          "indexed": true,
          "internalType": "address",
          "name": "supplier",
          "type": "address"
        }
      ],
      "name": "BidSubmitted",
      "type": "event"
    },
    {
      "anonymous": false,
      "inputs": [
        {
          "indexed": true,
          "internalType": "string",
          "name": "tenderID",
          "type": "string"
        },
        {
          "indexed": false,
          "internalType": "string",
          "name": "contractID",
          "type": "string"
        },
        {
          "indexed": true,
          "internalType": "address",
          "name": "supplier",
          "type": "address"
        }
      ],
      "name": "ContractSigned",
      "type": "event"
    },
    {
      "anonymous": false,
      "inputs": [
        {
          "indexed": true,
          "internalType": "string",
          "name": "tenderID",
          "type": "string"
        },
        {
          "indexed": false,
          "internalType": "string",
          "name": "awardID",
          "type": "string"
        },
        {
          "indexed": true,
          "internalType": "address",
          "name": "supplier",
          "type": "address"
        }
      ],
      "name": "TenderAwarded",
      "type": "event"
    },
    {
      "anonymous": false,
      "inputs": [
        {
          "indexed": true,
          "internalType": "string",
          "name": "tenderID",
          "type": "string"
        },
        {
          "indexed": false,
          "internalType": "string",
          "name": "title",
          "type": "string"
        },
        {
          "indexed": false,
          "internalType": "uint256",
          "name": "closingDate",
          "type": "uint256"
        }
      ],
      "name": "TenderCreated",
      "type": "event"
    },
    {
      "anonymous": false,
      "inputs": [
        {
          "indexed": true,
          "internalType": "string",
          "name": "tenderID",
          "type": "string"
        },
        {
          "indexed": false,
          "internalType": "string",
          "name": "status",
          "type": "string"
        }
      ],
      "name": "TenderStatusUpdated",
      "type": "event"
    },
    {
      "inputs": [
        {
          "components": [
            {
              "internalType": "string",
              "name": "contractID",
              "type": "string"
            },
            {
              "internalType": "string",
              "name": "tenderID",
              "type": "string"
            },
            {
              "internalType": "string",
              "name": "awardID",
              "type": "string"
            },
            {
              "internalType": "uint256",
              "name": "contractValue",
              "type": "uint256"
            },
            {
              "internalType": "string",
              "name": "hashOfContract",
              "type": "string"
            }
          ],
          "internalType": "struct TendekoStorage.ContractInput",
          "name": "input",
          "type": "tuple"
        }
      ],
      "name": "createContract",
      "outputs": [],
      "stateMutability": "nonpayable",
      "type": "function"
    },
    {
      "inputs": [
        {
          "internalType": "string",
          "name": "contractID",
          "type": "string"
        }
      ],
      "name": "getContract",
      "outputs": [
        {
          "components": [
            {
              "internalType": "string",
              "name": "contractID",
              "type": "string"
            },
            {
              "internalType": "string",
              "name": "tenderID",
              "type": "string"
            },
            {
              "internalType": "string",
              "name": "awardID",
              "type": "string"
            },
            {
              "internalType": "address",
              "name": "supplier",
              "type": "address"
            },
            {
              "internalType": "uint256",
              "name": "contractDate",
              "type": "uint256"
            },
            {
              "internalType": "uint256",
              "name": "contractValue",
              "type": "uint256"
            },
            {
              "internalType": "string",
              "name": "hashOfContract",
              "type": "string"
            },
            {
              "internalType": "string",
              "name": "status",
              "type": "string"
            }
          ],
          "internalType": "struct TendekoStorage.Contract",
          "name": "",
          "type": "tuple"
        }
      ],
      "stateMutability": "view",
      "type": "function"
    }
  ],
  "bytecode": "0x60806040523461001f57610011610024565b61109e610030823961109e90f35b61002a565b60405190565b600080fdfe60806040526004361015610013575b6104c4565b61001e60003561003d565b8063358177731461003857639d845e860361000e57610491565b61031b565b7c0100000000000000000000000000000000000000000000000000000000900490565b60405190565b600080fd5b600080fd5b600080fd5b600080fd5b600080fd5b601f801991011690565b7f4e487b7100000000000000000000000000000000000000000000000000000000600052604160045260246000fd5b906100c29061007f565b810190811067ffffffffffffffff8211176100dc57604052565b610089565b906100f46100ed610060565b92836100b8565b565b67ffffffffffffffff81116101145761011060209161007f565b0190565b610089565b90826000939282370152565b9092919261013a610135826100f6565b6100e1565b938185526020850190828401116101565761015492610119565b565b61007a565b9080601f830112156101795781602061017693359101610125565b90565b610075565b906020828203126101af57600082013567ffffffffffffffff81116101aa576101a7920161015b565b90565b610070565b61006b565b5190565b60209181520190565b60005b8381106101d5575050906000910152565b8060209183015181850152016101c4565b61020561020e602093610213936101fc816101b4565b938480936101b8565b958691016101c1565b61007f565b0190565b73ffffffffffffffffffffffffffffffffffffffff1690565b61023990610217565b90565b61024590610230565b9052565b90565b61025590610249565b9052565b6102ff9160e06102ee6102a66102946102826101008601600088015187820360008901526101e6565b602087015186820360208801526101e6565b604086015185820360408701526101e6565b6102b86060860151606086019061023c565b6102ca6080860151608086019061024c565b6102dc60a086015160a086019061024c565b60c085015184820360c08601526101e6565b9201519060e08184039101526101e6565b90565b6103189160208201916000818403910152610259565b90565b3461034b5761034761033661033136600461017e565b611049565b61033e610060565b91829182610302565b0390f35b610066565b600080fd5b600080fd5b61036381610249565b0361036a57565b600080fd5b9050359061037c8261035a565b565b91909160a0818403126104505761039560a06100e1565b92600082013567ffffffffffffffff811161044b57816103b691840161015b565b6000850152602082013567ffffffffffffffff811161044657816103db91840161015b565b6020850152604082013567ffffffffffffffff8111610441578161040091840161015b565b6040850152610412816060840161036f565b6060850152608082013567ffffffffffffffff811161043c57610435920161015b565b6080830152565b610355565b610355565b610355565b610355565b610350565b9060208282031261048657600082013567ffffffffffffffff81116104815761047e920161037e565b90565b610070565b61006b565b60000190565b346104bf576104a96104a4366004610455565b610c48565b6104b1610060565b806104bb8161048b565b0390f35b610066565b600080fd5b905090565b6104f36104ea926020926104e1816101b4565b948580936104c9565b938491016101c1565b0190565b90565b61050661050b91610249565b6104f7565b9052565b61051f61052691602094936104ce565b80926104fa565b0190565b61053e610535610060565b9283928361050f565b03902090565b61054d9161052a565b90565b6001900490565b73ffffffffffffffffffffffffffffffffffffffff1690565b61057c61058191610550565b610557565b90565b61058e9054610570565b90565b90565b90565b6105ab6105a66105b092610591565b610594565b610217565b90565b6105bc90610597565b90565b60209181520190565b60007f417761726420646f65736e277420657869737400000000000000000000000000910152565b6105fd60136020926105bf565b610606816105c8565b0190565b61062090602081019060008183039101526105f0565b90565b1561062a57565b610632610060565b7f08c379a0000000000000000000000000000000000000000000000000000000008152806106626004820161060a565b0390fd5b61066f9161052a565b90565b60007f4e6f7420617574686f72697a6564000000000000000000000000000000000000910152565b6106a7600e6020926105bf565b6106b081610672565b0190565b6106ca906020810190600081830391015261069a565b90565b156106d457565b6106dc610060565b7f08c379a00000000000000000000000000000000000000000000000000000000081528061070c600482016106b4565b0390fd5b61071a9051610249565b90565b6107286101006100e1565b90565b52565b9061073890610230565b9052565b9061074690610249565b9052565b9061075c610757836100f6565b6100e1565b918252565b60007f4143544956450000000000000000000000000000000000000000000000000000910152565b610793600661074a565b906107a060208301610761565b565b6107aa610789565b90565b6107b69161052a565b90565b5190565b7f4e487b7100000000000000000000000000000000000000000000000000000000600052602260045260246000fd5b906001600283049216801561080c575b602083101461080757565b6107bd565b91607f16916107fc565b600052602060002090565b601f602091010490565b60020a0290565b9190600861084e9102916108486000198461082b565b9261082b565b9181191691161790565b61086c61086761087192610249565b610594565b610249565b90565b90565b919061088d61088861089593610858565b610874565b908354610832565b9055565b600090565b6108b0916108aa610899565b91610877565b565b5b8181106108be575050565b806108cc600060019361089e565b016108b3565b9190601f81116108e2575b505050565b6108ee61091393610816565b9060206108fa84610821565b8301931061091b575b61090c90610821565b01906108b2565b3880806108dd565b915061090c81929050610903565b60020a900490565b906109429060001990600802610929565b191690565b8161095191610931565b906002021790565b90610963816101b4565b9067ffffffffffffffff8211610a25576109878261098185546107ec565b856108d2565b602090601f83116001146109bc579180916109ab936000926109b0575b5050610947565b90555b565b909150015138806109a4565b601f198316916109cb85610816565b9260005b818110610a0d575091600293918560019694106109f3575b505050020190556109ae565b610a03910151601f841690610931565b90553880806109e7565b919360206001819287870151815501950192016109cf565b610089565b90610a3491610959565b565b610a409051610230565b90565b60010290565b90610a6873ffffffffffffffffffffffffffffffffffffffff91610a43565b9181191691161790565b610a86610a81610a8b92610217565b610594565b610217565b90565b610a9790610a72565b90565b610aa390610a8e565b90565b90565b90610abe610ab9610ac592610a9a565b610aa6565b8254610a49565b9055565b90610ad660001991610a43565b9181191691161790565b90610af5610af0610afc92610858565b610874565b8254610ac9565b9055565b90610bc360e06007610bc994610b2560008201610b1f600088016107b9565b90610a2a565b610b3e60018201610b38602088016107b9565b90610a2a565b610b5760028201610b51604088016107b9565b90610a2a565b610b7060038201610b6a60608801610a36565b90610aa9565b610b8960048201610b8360808801610710565b90610ae0565b610ba260058201610b9c60a08801610710565b90610ae0565b610bbb60068201610bb560c088016107b9565b90610a2a565b0192016107b9565b90610a2a565b565b90610bd591610b00565b565b610be0916104ce565b90565b610bf890610bef610060565b91829182610bd7565b03902090565b610c1d610c26602093610c2b93610c14816101b4565b938480936105bf565b958691016101c1565b61007f565b0190565b610c459160208201916000818403910152610bfe565b90565b610c88610c666003610c606002604086015190610544565b01610584565b610c81610c7b610c7660006105b3565b610230565b91610230565b1415610623565b610cbe33610cb8610cb2610cad6007610ca76000602089015190610666565b01610584565b610230565b91610230565b146106cd565b610d866000610d5d81840151610d5485610d4b6020820151610d426040840151610d39610cfc6003610cf6600260408a015190610544565b01610584565b91610d304295610d276080610d1360608c01610710565b9a01519b610d1f61071d565b9e8f0161072b565b60208d0161072b565b60408b0161072b565b6060890161072e565b6080870161073c565b60a0850161073c565b60c0830161072b565b610d71610d686107a2565b60e0830161072b565b610d8160036000850151906107ad565b610bcb565b6020810151610dac6003610da66000850151946040600291015190610544565b01610584565b90610df5610de3610ddd7f70931e44adfccf8e6fe5ff2bf605c2ebb5556dfcfafed4ce0218603ce9876eb793610be3565b93610a9a565b93610dec610060565b91829182610c2f565b0390a3565b610e056101006100e1565b90565b606090565b600090565b600090565b610e1f610dfa565b9060208080808080808089610e32610e08565b815201610e3d610e08565b815201610e48610e08565b815201610e53610e0d565b815201610e5e610e12565b815201610e69610e12565b815201610e74610e08565b815201610e7f610e08565b81525050565b610e8d610e17565b90565b9060009291805490610eab610ea4836107ec565b80946101b8565b91600181169081600014610f045750600114610ec7575b505050565b610ed49192939450610816565b916000925b818410610eec5750500190388080610ec2565b60018160209295939554848601520191019290610ed9565b92949550505060ff1916825215156020020190388080610ec2565b90610f2991610e90565b90565b90610f4c610f4592610f3c610060565b93848092610f1f565b03836100b8565b565b90565b610f5d610f6291610550565b610f4e565b90565b610f6f9054610f51565b90565b9061103b6110326007610f83610dfa565b94610f9c610f9360008301610f2c565b6000880161072b565b610fb4610fab60018301610f2c565b6020880161072b565b610fcc610fc360028301610f2c565b6040880161072b565b610fe4610fdb60038301610584565b6060880161072e565b610ffc610ff360048301610f65565b6080880161073c565b61101461100b60058301610f65565b60a0880161073c565b61102c61102360068301610f2c565b60c0880161072b565b01610f2c565b60e0840161072b565b565b61104690610f72565b90565b61106061106591611058610e85565b5060036107ad565b61103d565b9056fea264697066735822122010bf70cdb9bb0e52806b931c6b18de80b47abda23bcc3f082a3f486dae592f9264736f6c63430008150033",
  "immutableReferences": {},
  "source": "// SPDX-License-Identifier: MIT\npragma solidity ^0.8.21;\n\ncontract TendekoStorage {\n    struct Tender {\n        string tenderID;\n        string title;\n        uint256 closingDate;\n        uint256 valueAmount;\n        string valueCurrency;\n        string status;\n        string hashOfDetails;\n        address procuringEntity;\n        bool isEvaluated;\n    }\n    \n    struct Bid {\n        string bidID;\n        string tenderID;\n        address supplier;\n        uint256 bidAmount;\n        uint256 timestamp;\n        string hashOfDocuments;\n        bool isWinningBid;\n    }\n    \n    struct Award {\n        string awardID;\n        string tenderID;\n        string bidID;\n        address supplier;\n        uint256 awardDate;\n        string hashOfEvaluation;\n    }\n    \n    struct Contract {\n        string contractID;\n        string tenderID;\n        string awardID;\n        address supplier;\n        uint256 contractDate;\n        uint256 contractValue;\n        string hashOfContract;\n        string status;\n    }\n\n    struct TenderInput {\n        string tenderID;\n        string title;\n        uint256 closingDate;\n        uint256 valueAmount;\n        string valueCurrency;\n        string hashOfDetails;\n    }\n\n    struct BidInput {\n        string tenderID;\n        string bidID;\n        uint256 bidAmount;\n        string hashOfDocuments;\n    }\n\n    struct AwardInput {\n        string tenderID;\n        string awardID;\n        string bidID;\n        address supplier;\n        string hashOfEvaluation;\n    }\n\n    struct ContractInput {\n        string contractID;\n        string tenderID;\n        string awardID;\n        uint256 contractValue;\n        string hashOfContract;\n    }\n\n    // Storage\n    mapping(string => Tender) internal tenders;\n    mapping(string => Bid[]) internal tenderBids;\n    mapping(string => Award) internal awards;\n    mapping(string => Contract) internal contracts;\n    \n    // Events\n    event TenderCreated(string indexed tenderID, string title, uint256 closingDate);\n    event BidSubmitted(string indexed tenderID, string bidID, address indexed supplier);\n    event TenderAwarded(string indexed tenderID, string awardID, address indexed supplier);\n    event ContractSigned(string indexed tenderID, string contractID, address indexed supplier);\n    event TenderStatusUpdated(string indexed tenderID, string status);\n}\n\ncontract TendekoTenderManagement is TendekoStorage {\n    modifier onlyProcuringEntity(string memory tenderID) {\n        require(msg.sender == tenders[tenderID].procuringEntity, \"Not authorized\");\n        _;\n    }\n\n    function createTender(TenderInput memory input) external {\n        tenders[input.tenderID] = Tender({\n            tenderID: input.tenderID,\n            title: input.title,\n            closingDate: input.closingDate,\n            valueAmount: input.valueAmount,\n            valueCurrency: input.valueCurrency,\n            status: \"ACTIVE\",\n            hashOfDetails: input.hashOfDetails,\n            procuringEntity: msg.sender,\n            isEvaluated: false\n        });\n        emit TenderCreated(input.tenderID, input.title, input.closingDate);\n    }\n\n    function updateTenderStatus(string memory _tenderID, string memory _status) \n        external \n        onlyProcuringEntity(_tenderID) \n    {\n        tenders[_tenderID].status = _status;\n        emit TenderStatusUpdated(_tenderID, _status);\n    }\n\n    function getTender(string memory tenderID) external view returns (\n        string memory tenderID_,\n        string memory title,\n        uint256 closingDate,\n        uint256 valueAmount,\n        string memory valueCurrency,\n        string memory status,\n        string memory hashOfDetails,\n        address procuringEntity,\n        bool isEvaluated\n    ) {\n        Tender storage tender = tenders[tenderID];\n        \n        return (\n            tender.tenderID,\n            tender.title,\n            tender.closingDate,\n            tender.valueAmount,\n            tender.valueCurrency,\n            tender.status,\n            tender.hashOfDetails,\n            tender.procuringEntity,\n            tender.isEvaluated\n        );\n    }\n\n    function getBidsForTender(string memory tenderID) external view returns (Bid[] memory) {\n        return tenderBids[tenderID];\n    }\n}\n\ncontract TendekoBidManagement is TendekoStorage {\n    function submitBid(BidInput memory input) external {\n        require(tenders[input.tenderID].closingDate > block.timestamp, \"Tender closed\");\n        require(bytes(tenders[input.tenderID].status).length > 0, \"Tender doesn't exist\");\n        \n        tenderBids[input.tenderID].push(Bid({\n            bidID: input.bidID,\n            tenderID: input.tenderID,\n            supplier: msg.sender,\n            bidAmount: input.bidAmount,\n            timestamp: block.timestamp,\n            hashOfDocuments: input.hashOfDocuments,\n            isWinningBid: false\n        }));\n        emit BidSubmitted(input.tenderID, input.bidID, msg.sender);\n    }\n\n    function getBid(string memory tenderID, string memory bidID) external view returns (Bid memory) {\n        Bid[] memory bids = tenderBids[tenderID];\n        for (uint i = 0; i < bids.length; i++) {\n            if (keccak256(abi.encodePacked(bids[i].bidID)) == keccak256(abi.encodePacked(bidID))) {\n                return bids[i];\n            }\n        }\n        revert(\"Bid not found\");\n    }\n}\n\ncontract TendekoAwardManagement is TendekoStorage {\n    function awardTender(AwardInput memory input) external {\n        require(!tenders[input.tenderID].isEvaluated, \"Already evaluated\");\n        require(msg.sender == tenders[input.tenderID].procuringEntity, \"Not authorized\");\n        \n        awards[input.awardID] = Award({\n            awardID: input.awardID,\n            tenderID: input.tenderID,\n            bidID: input.bidID,\n            supplier: input.supplier,\n            awardDate: block.timestamp,\n            hashOfEvaluation: input.hashOfEvaluation\n        });\n        \n        tenders[input.tenderID].isEvaluated = true;\n        tenders[input.tenderID].status = \"COMPLETED\";\n        \n        emit TenderAwarded(input.tenderID, input.awardID, input.supplier);\n        emit TenderStatusUpdated(input.tenderID, \"COMPLETED\");\n    }\n\n    function getAward(string memory awardID) external view returns (Award memory) {\n        return awards[awardID];\n    }\n}\n\ncontract TendekoContractManagement is TendekoStorage {\n    function createContract(ContractInput memory input) external {\n        require(awards[input.awardID].supplier != address(0), \"Award doesn't exist\");\n        require(msg.sender == tenders[input.tenderID].procuringEntity, \"Not authorized\");\n        \n        contracts[input.contractID] = Contract({\n            contractID: input.contractID,\n            tenderID: input.tenderID,\n            awardID: input.awardID,\n            supplier: awards[input.awardID].supplier,\n            contractDate: block.timestamp,\n            contractValue: input.contractValue,\n            hashOfContract: input.hashOfContract,\n            status: \"ACTIVE\"\n        });\n        emit ContractSigned(input.tenderID, input.contractID, awards[input.awardID].supplier);\n    }\n\n    function getContract(string memory contractID) external view returns (Contract memory) {\n        return contracts[contractID];\n    }\n}\n\ncontract TendekoEProcurement is TendekoTenderManagement, TendekoBidManagement, TendekoAwardManagement, TendekoContractManagement {\n    address public admin;\n    address[] public authorizedEntities;\n    uint256 public minBidTimeWindow = 7 days; \n    bool public systemActive = true;\n    \n    event AdminChanged(address indexed previousAdmin, address indexed newAdmin);\n    event EntityAuthorized(address indexed entity);\n    event EntityDeauthorized(address indexed entity);\n    event SystemStatusChanged(bool active);\n    \n    modifier onlyAdmin() {\n        require(msg.sender == admin, \"Only admin can perform this action\");\n        _;\n    }\n    \n    constructor(address _initialAdmin) {\n        require(_initialAdmin != address(0), \"Invalid admin address\");\n        admin = _initialAdmin;\n        authorizedEntities.push(_initialAdmin); // Admin is an authorized entity by default\n        emit AdminChanged(address(0), _initialAdmin);\n        emit EntityAuthorized(_initialAdmin);\n    }\n    \n    // Admin functions to manage the system\n    function changeAdmin(address _newAdmin) external onlyAdmin {\n        require(_newAdmin != address(0), \"Invalid admin address\");\n        emit AdminChanged(admin, _newAdmin);\n        admin = _newAdmin;\n    }\n    \n    function authorizeEntity(address _entity) external onlyAdmin {\n        require(_entity != address(0), \"Invalid entity address\");\n        // Add logic to check if entity already exists\n        authorizedEntities.push(_entity);\n        emit EntityAuthorized(_entity);\n    }\n    \n    function deauthorizeEntity(address _entity) external onlyAdmin {\n        // Add logic to remove entity from authorizedEntities array\n        emit EntityDeauthorized(_entity);\n    }\n    \n    function setMinBidTimeWindow(uint256 _days) external onlyAdmin {\n        minBidTimeWindow = _days * 1 days;\n    }\n    \n    function toggleSystem(bool _active) external onlyAdmin {\n        systemActive = _active;\n        emit SystemStatusChanged(_active);\n    }\n\n}\n",
  "sourcePath": "/Users/munashenzira/Documents/Tendeko/smart_contract/contracts/TendekoEProcurement.sol",
  "compiler": {
    "name": "solc",
    "version": "0.8.21+commit.d9974bed.Emscripten.clang"
  },
  "schemaVersion": "3.4.16",
  "updatedAt": "2025-05-04T19:32:25.794Z",
  "devdoc": {
    "kind": "dev",
    "methods": {},
    "version": 1
  },
  "userdoc": {
    "kind": "user",
    "methods": {},
    "version": 1
  }
}