{
  "contractName": "TendekoTenderManagement",
  "abi": [
    {
      "anonymous": false,
      "inputs": [
        {
          "indexed": true,
          "internalType": "string",
          "name": "tenderID",
          "type": "string"
        },
        {
          "indexed": false,
          "internalType": "string",
          "name": "bidID",
          "type": "string"
        },
        {
          "indexed": true,
          "internalType": "address",
          "name": "supplier",
          "type": "address"
        }
      ],
      "name": "BidSubmitted",
      "type": "event"
    },
    {
      "anonymous": false,
      "inputs": [
        {
          "indexed": true,
          "internalType": "string",
          "name": "tenderID",
          "type": "string"
        },
        {
          "indexed": false,
          "internalType": "string",
          "name": "contractID",
          "type": "string"
        },
        {
          "indexed": true,
          "internalType": "address",
          "name": "supplier",
          "type": "address"
        }
      ],
      "name": "ContractSigned",
      "type": "event"
    },
    {
      "anonymous": false,
      "inputs": [
        {
          "indexed": true,
          "internalType": "string",
          "name": "tenderID",
          "type": "string"
        },
        {
          "indexed": false,
          "internalType": "string",
          "name": "awardID",
          "type": "string"
        },
        {
          "indexed": true,
          "internalType": "address",
          "name": "supplier",
          "type": "address"
        }
      ],
      "name": "TenderAwarded",
      "type": "event"
    },
    {
      "anonymous": false,
      "inputs": [
        {
          "indexed": true,
          "internalType": "string",
          "name": "tenderID",
          "type": "string"
        },
        {
          "indexed": false,
          "internalType": "string",
          "name": "title",
          "type": "string"
        },
        {
          "indexed": false,
          "internalType": "uint256",
          "name": "closingDate",
          "type": "uint256"
        }
      ],
      "name": "TenderCreated",
      "type": "event"
    },
    {
      "anonymous": false,
      "inputs": [
        {
          "indexed": true,
          "internalType": "string",
          "name": "tenderID",
          "type": "string"
        },
        {
          "indexed": false,
          "internalType": "string",
          "name": "status",
          "type": "string"
        }
      ],
      "name": "TenderStatusUpdated",
      "type": "event"
    },
    {
      "inputs": [
        {
          "components": [
            {
              "internalType": "string",
              "name": "tenderID",
              "type": "string"
            },
            {
              "internalType": "string",
              "name": "title",
              "type": "string"
            },
            {
              "internalType": "uint256",
              "name": "closingDate",
              "type": "uint256"
            },
            {
              "internalType": "uint256",
              "name": "valueAmount",
              "type": "uint256"
            },
            {
              "internalType": "string",
              "name": "valueCurrency",
              "type": "string"
            },
            {
              "internalType": "string",
              "name": "hashOfDetails",
              "type": "string"
            }
          ],
          "internalType": "struct TendekoStorage.TenderInput",
          "name": "input",
          "type": "tuple"
        }
      ],
      "name": "createTender",
      "outputs": [],
      "stateMutability": "nonpayable",
      "type": "function"
    },
    {
      "inputs": [
        {
          "internalType": "string",
          "name": "_tenderID",
          "type": "string"
        },
        {
          "internalType": "string",
          "name": "_status",
          "type": "string"
        }
      ],
      "name": "updateTenderStatus",
      "outputs": [],
      "stateMutability": "nonpayable",
      "type": "function"
    },
    {
      "inputs": [
        {
          "internalType": "string",
          "name": "tenderID",
          "type": "string"
        }
      ],
      "name": "getTender",
      "outputs": [
        {
          "internalType": "string",
          "name": "tenderID_",
          "type": "string"
        },
        {
          "internalType": "string",
          "name": "title",
          "type": "string"
        },
        {
          "internalType": "uint256",
          "name": "closingDate",
          "type": "uint256"
        },
        {
          "internalType": "uint256",
          "name": "valueAmount",
          "type": "uint256"
        },
        {
          "internalType": "string",
          "name": "valueCurrency",
          "type": "string"
        },
        {
          "internalType": "string",
          "name": "status",
          "type": "string"
        },
        {
          "internalType": "string",
          "name": "hashOfDetails",
          "type": "string"
        },
        {
          "internalType": "address",
          "name": "procuringEntity",
          "type": "address"
        },
        {
          "internalType": "bool",
          "name": "isEvaluated",
          "type": "bool"
        }
      ],
      "stateMutability": "view",
      "type": "function"
    },
    {
      "inputs": [
        {
          "internalType": "string",
          "name": "tenderID",
          "type": "string"
        }
      ],
      "name": "getBidsForTender",
      "outputs": [
        {
          "components": [
            {
              "internalType": "string",
              "name": "bidID",
              "type": "string"
            },
            {
              "internalType": "string",
              "name": "tenderID",
              "type": "string"
            },
            {
              "internalType": "address",
              "name": "supplier",
              "type": "address"
            },
            {
              "internalType": "uint256",
              "name": "bidAmount",
              "type": "uint256"
            },
            {
              "internalType": "uint256",
              "name": "timestamp",
              "type": "uint256"
            },
            {
              "internalType": "string",
              "name": "hashOfDocuments",
              "type": "string"
            },
            {
              "internalType": "bool",
              "name": "isWinningBid",
              "type": "bool"
            }
          ],
          "internalType": "struct TendekoStorage.Bid[]",
          "name": "",
          "type": "tuple[]"
        }
      ],
      "stateMutability": "view",
      "type": "function"
    }
  ],
  "bytecode": "0x60806040523461001f57610011610024565b61147c610030823961147c90f35b61002a565b60405190565b600080fdfe60806040526004361015610013575b61074c565b61001e60003561005d565b80631e05d24b146100585780635332194f1461005357806362f058c81461004e5763a20ae2320361000e57610719565b61058d565b610459565b610202565b7c0100000000000000000000000000000000000000000000000000000000900490565b60405190565b600080fd5b600080fd5b600080fd5b600080fd5b600080fd5b601f801991011690565b7f4e487b7100000000000000000000000000000000000000000000000000000000600052604160045260246000fd5b906100e29061009f565b810190811067ffffffffffffffff8211176100fc57604052565b6100a9565b9061011461010d610080565b92836100d8565b565b67ffffffffffffffff81116101345761013060209161009f565b0190565b6100a9565b90826000939282370152565b9092919261015a61015582610116565b610101565b938185526020850190828401116101765761017492610139565b565b61009a565b9080601f830112156101995781602061019693359101610145565b90565b610095565b9190916040818403126101f757600081013567ffffffffffffffff81116101f257836101cb91830161017b565b92602082013567ffffffffffffffff81116101ed576101ea920161017b565b90565b610090565b610090565b61008b565b60000190565b346102315761021b61021536600461019e565b90611059565b610223610080565b8061022d816101fc565b0390f35b610086565b9060208282031261026757600082013567ffffffffffffffff81116102625761025f920161017b565b90565b610090565b61008b565b5190565b60209181520190565b60200190565b5190565b60209181520190565b60005b8381106102a0575050906000910152565b80602091830151818501520161028f565b6102d06102d96020936102de936102c78161027f565b93848093610283565b9586910161028c565b61009f565b0190565b73ffffffffffffffffffffffffffffffffffffffff1690565b610304906102e2565b90565b610310906102fb565b9052565b90565b61032090610314565b9052565b151590565b61033290610324565b9052565b906103c29060c0806103b761036f61035d60e08601600089015187820360008901526102b1565b602088015186820360208801526102b1565b61038160408801516040870190610307565b61039360608801516060870190610317565b6103a560808801516080870190610317565b60a087015185820360a08701526102b1565b940151910190610329565b90565b906103cf91610336565b90565b60200190565b906103ec6103e58361026c565b8092610270565b90816103fd60208302840194610279565b926000915b83831061041157505050505090565b9091929394602061043361042d838560019503875289516103c5565b976103d2565b9301930191939290610402565b61045691602082019160008184039101526103d8565b90565b346104895761048561047461046f366004610236565b611427565b61047c610080565b91829182610440565b0390f35b610086565b60209181520190565b6104b66104bf6020936104c4936104ad8161027f565b9384809361048e565b9586910161028c565b61009f565b0190565b6104d190610314565b9052565b6104de906102fb565b9052565b6104eb90610324565b9052565b949561055d61057994610100986105506105849861058b9d9f9e9c9761053b8c6105469261052d61056b9b6101208401908482036000860152610497565b916020818403910152610497565b9460408d01906104c8565b60608b01906104c8565b88820360808a0152610497565b9086820360a0880152610497565b9084820360c0860152610497565b9660e08301906104d5565b01906104e2565b565b346105c7576105c36105a86105a3366004610236565b6111a7565b956105ba999799959195949294610080565b998a998a6104ef565b0390f35b610086565b600080fd5b600080fd5b6105df81610314565b036105e657565b600080fd5b905035906105f8826105d6565b565b91909160c0818403126106de5761061160c0610101565b92600082013567ffffffffffffffff81116106d9578161063291840161017b565b6000850152602082013567ffffffffffffffff81116106d4578161065791840161017b565b602085015261066981604084016105eb565b604085015261067b81606084016105eb565b6060850152608082013567ffffffffffffffff81116106cf57816106a091840161017b565b608085015260a082013567ffffffffffffffff81116106ca576106c3920161017b565b60a0830152565b6105d1565b6105d1565b6105d1565b6105d1565b6105cc565b9060208282031261071457600082013567ffffffffffffffff811161070f5761070c92016105fa565b90565b610090565b61008b565b346107475761073161072c3660046106e3565b610d8b565b610739610080565b80610743816101fc565b0390f35b610086565b600080fd5b61075b9051610314565b90565b610769610120610101565b90565b52565b9061077990610314565b9052565b9061078f61078a83610116565b610101565b918252565b60007f4143544956450000000000000000000000000000000000000000000000000000910152565b6107c6600661077d565b906107d360208301610794565b565b6107dd6107bc565b90565b906107ea906102fb565b9052565b906107f890610324565b9052565b905090565b61082661081d926020926108148161027f565b948580936107fc565b9384910161028c565b0190565b90565b61083961083e91610314565b61082a565b9052565b6108526108599160209493610801565b809261082d565b0190565b610871610868610080565b92839283610842565b03902090565b6108809161085d565b90565b5190565b7f4e487b7100000000000000000000000000000000000000000000000000000000600052602260045260246000fd5b90600160028304921680156108d6575b60208310146108d157565b610887565b91607f16916108c6565b600052602060002090565b601f602091010490565b60020a0290565b91906008610918910291610912600019846108f5565b926108f5565b9181191691161790565b90565b61093961093461093e92610314565b610922565b610314565b90565b90565b919061095a61095561096293610925565b610941565b9083546108fc565b9055565b600090565b61097d91610977610966565b91610944565b565b5b81811061098b575050565b80610999600060019361096b565b01610980565b9190601f81116109af575b505050565b6109bb6109e0936108e0565b9060206109c7846108eb565b830193106109e8575b6109d9906108eb565b019061097f565b3880806109aa565b91506109d9819290506109d0565b60020a900490565b90610a0f90600019906008026109f6565b191690565b81610a1e916109fe565b906002021790565b90610a308161027f565b9067ffffffffffffffff8211610af257610a5482610a4e85546108b6565b8561099f565b602090601f8311600114610a8957918091610a7893600092610a7d575b5050610a14565b90555b565b90915001513880610a71565b601f19831691610a98856108e0565b9260005b818110610ada57509160029391856001969410610ac0575b50505002019055610a7b565b610ad0910151601f8416906109fe565b9055388080610ab4565b91936020600181928787015181550195019201610a9c565b6100a9565b90610b0191610a26565b565b60010290565b90610b1660001991610b03565b9181191691161790565b90610b35610b30610b3c92610925565b610941565b8254610b09565b9055565b610b4a90516102fb565b90565b90610b6c73ffffffffffffffffffffffffffffffffffffffff91610b03565b9181191691161790565b610b8a610b85610b8f926102e2565b610922565b6102e2565b90565b610b9b90610b76565b90565b610ba790610b92565b90565b90565b90610bc2610bbd610bc992610b9e565b610baa565b8254610b4d565b9055565b610bd79051610324565b90565b740100000000000000000000000000000000000000000290565b90610c1474ff000000000000000000000000000000000000000091610bda565b9181191691161790565b610c2790610324565b90565b90565b90610c42610c3d610c4992610c1e565b610c2a565b8254610bf4565b9055565b90610d296101006007610d2f94610c7360008201610c6d60008801610883565b90610af7565b610c8c60018201610c8660208801610883565b90610af7565b610ca560028201610c9f60408801610751565b90610b20565b610cbe60038201610cb860608801610751565b90610b20565b610cd760048201610cd160808801610883565b90610af7565b610cf060058201610cea60a08801610883565b90610af7565b610d0960068201610d0360c08801610883565b90610af7565b610d21828201610d1b60e08801610b40565b90610bad565b019201610bcd565b90610c2d565b565b90610d3b91610c4d565b565b610d4691610801565b90565b610d5e90610d55610080565b91829182610d3d565b03902090565b92916020610d81610d899360408701908782036000890152610497565b9401906104c8565b565b8060000151816020015182604001610da290610751565b83606001610daf90610751565b84608001518560a00151913393600095610dc761075e565b976000890190610dd69161076c565b6020880190610de49161076c565b6040870190610df29161076f565b6060860190610e009161076f565b6080850190610e0e9161076c565b610e166107d5565b60a0850190610e249161076c565b60c0840190610e329161076c565b60e0830190610e40916107e0565b610100820190610e4f916107ee565b60008260000151610e5f91610877565b90610e6991610d31565b8060000151816020015191604001610e8090610751565b917f7c02dbece118b74b75a859fcad8f7ad735dac53aafcf2b3867bd6e628a09509c91610eac90610d49565b92610eb5610080565b918291610ec29183610d64565b0390a2565b6001900490565b73ffffffffffffffffffffffffffffffffffffffff1690565b610ef3610ef891610ec7565b610ece565b90565b610f059054610ee7565b90565b60007f4e6f7420617574686f72697a6564000000000000000000000000000000000000910152565b610f3d600e60209261048e565b610f4681610f08565b0190565b610f609060208101906000818303910152610f30565b90565b15610f6a57565b610f72610080565b7f08c379a000000000000000000000000000000000000000000000000000000000815280610fa260048201610f4a565b0390fd5b90610fe291610fdd81610fd7610fd1610fcc6007610fc633956000610877565b01610efb565b6102fb565b916102fb565b14610f63565b610ffd565b565b610ffa9160208201916000818403910152610497565b90565b61101582600561100f60008590610877565b01610af7565b6110546110427f14fa414b4bcec7f1b2b9919714819414dd5cd58dffa8b56430419db62520112992610d49565b9261104b610080565b91829182610fe4565b0390a2565b9061106391610fa6565b565b606090565b600090565b600090565b90565b90565b61108661108b91610ec7565b611077565b90565b611098905461107a565b90565b74010000000000000000000000000000000000000000900490565b60ff1690565b6110c86110cd9161109b565b6110b6565b90565b6110da90546110bc565b90565b90600092918054906110f86110f1836108b6565b8094610283565b916001811690816000146111515750600114611114575b505050565b61112191929394506108e0565b916000925b818410611139575050019038808061110f565b60018160209295939554848601520191019290611126565b92949550505060ff191682521515602002019038808061110f565b90611176916110dd565b90565b9061119961119292611189610080565b9384809261116c565b03836100d8565b565b6111a490611179565b90565b61120661120b916111b6611065565b506111bf611065565b506111c8610966565b506111d1610966565b506111da611065565b506111e3611065565b506111ec611065565b506111f561106a565b506111fe61106f565b506000610877565b611074565b90600082019060018301926112226002820161108e565b9261122f6003830161108e565b9260048301926005810192600682019261128561127f61127961127161126b611265600761125e818b01610efb565b99016110d0565b9661119b565b9c61119b565b9a999861119b565b9661119b565b9461119b565b929190565b606090565b6112989161085d565b90565b5490565b67ffffffffffffffff81116112b75760208091020190565b6100a9565b906112ce6112c98361129f565b610101565b918252565b600052602060002090565b6112ea6112ef91610ec7565b6110b6565b90565b6112fc90546112de565b90565b61130960e0610101565b90565b906113bd6113b4600661131d6112ff565b9461133661132d60008301611179565b6000880161076c565b61134e61134560018301611179565b6020880161076c565b61136661135d60028301610efb565b604088016107e0565b61137e6113756003830161108e565b6060880161076f565b61139661138d6004830161108e565b6080880161076f565b6113ae6113a560058301611179565b60a0880161076c565b016112f2565b60c084016107ee565b565b6113c89061130c565b90565b906113d58261129b565b6113de816112bc565b926113ec60208501916112d3565b6000915b8383106113fd5750505050565b6007602060019261140d856113bf565b8152019201920191906113f0565b611424906113cb565b90565b61143e6114439161143661128a565b50600161128f565b61141b565b9056fea2646970667358221220395a700e986b997c7135efcc9cd124f0993c3d0085896336dbdb06da72378bb564736f6c63430008150033",
  "immutableReferences": {},
  "source": "// SPDX-License-Identifier: MIT\npragma solidity ^0.8.21;\n\ncontract TendekoStorage {\n    struct Tender {\n        string tenderID;\n        string title;\n        uint256 closingDate;\n        uint256 valueAmount;\n        string valueCurrency;\n        string status;\n        string hashOfDetails;\n        address procuringEntity;\n        bool isEvaluated;\n    }\n    \n    struct Bid {\n        string bidID;\n        string tenderID;\n        address supplier;\n        uint256 bidAmount;\n        uint256 timestamp;\n        string hashOfDocuments;\n        bool isWinningBid;\n    }\n    \n    struct Award {\n        string awardID;\n        string tenderID;\n        string bidID;\n        address supplier;\n        uint256 awardDate;\n        string hashOfEvaluation;\n    }\n    \n    struct Contract {\n        string contractID;\n        string tenderID;\n        string awardID;\n        address supplier;\n        uint256 contractDate;\n        uint256 contractValue;\n        string hashOfContract;\n        string status;\n    }\n\n    struct TenderInput {\n        string tenderID;\n        string title;\n        uint256 closingDate;\n        uint256 valueAmount;\n        string valueCurrency;\n        string hashOfDetails;\n    }\n\n    struct BidInput {\n        string tenderID;\n        string bidID;\n        uint256 bidAmount;\n        string hashOfDocuments;\n    }\n\n    struct AwardInput {\n        string tenderID;\n        string awardID;\n        string bidID;\n        address supplier;\n        string hashOfEvaluation;\n    }\n\n    struct ContractInput {\n        string contractID;\n        string tenderID;\n        string awardID;\n        uint256 contractValue;\n        string hashOfContract;\n    }\n\n    // Storage\n    mapping(string => Tender) internal tenders;\n    mapping(string => Bid[]) internal tenderBids;\n    mapping(string => Award) internal awards;\n    mapping(string => Contract) internal contracts;\n    \n    // Events\n    event TenderCreated(string indexed tenderID, string title, uint256 closingDate);\n    event BidSubmitted(string indexed tenderID, string bidID, address indexed supplier);\n    event TenderAwarded(string indexed tenderID, string awardID, address indexed supplier);\n    event ContractSigned(string indexed tenderID, string contractID, address indexed supplier);\n    event TenderStatusUpdated(string indexed tenderID, string status);\n}\n\ncontract TendekoTenderManagement is TendekoStorage {\n    modifier onlyProcuringEntity(string memory tenderID) {\n        require(msg.sender == tenders[tenderID].procuringEntity, \"Not authorized\");\n        _;\n    }\n\n    function createTender(TenderInput memory input) external {\n        tenders[input.tenderID] = Tender({\n            tenderID: input.tenderID,\n            title: input.title,\n            closingDate: input.closingDate,\n            valueAmount: input.valueAmount,\n            valueCurrency: input.valueCurrency,\n            status: \"ACTIVE\",\n            hashOfDetails: input.hashOfDetails,\n            procuringEntity: msg.sender,\n            isEvaluated: false\n        });\n        emit TenderCreated(input.tenderID, input.title, input.closingDate);\n    }\n\n    function updateTenderStatus(string memory _tenderID, string memory _status) \n        external \n        onlyProcuringEntity(_tenderID) \n    {\n        tenders[_tenderID].status = _status;\n        emit TenderStatusUpdated(_tenderID, _status);\n    }\n\n    function getTender(string memory tenderID) external view returns (\n        string memory tenderID_,\n        string memory title,\n        uint256 closingDate,\n        uint256 valueAmount,\n        string memory valueCurrency,\n        string memory status,\n        string memory hashOfDetails,\n        address procuringEntity,\n        bool isEvaluated\n    ) {\n        Tender storage tender = tenders[tenderID];\n        \n        return (\n            tender.tenderID,\n            tender.title,\n            tender.closingDate,\n            tender.valueAmount,\n            tender.valueCurrency,\n            tender.status,\n            tender.hashOfDetails,\n            tender.procuringEntity,\n            tender.isEvaluated\n        );\n    }\n\n    function getBidsForTender(string memory tenderID) external view returns (Bid[] memory) {\n        return tenderBids[tenderID];\n    }\n}\n\ncontract TendekoBidManagement is TendekoStorage {\n    function submitBid(BidInput memory input) external {\n        require(tenders[input.tenderID].closingDate > block.timestamp, \"Tender closed\");\n        require(bytes(tenders[input.tenderID].status).length > 0, \"Tender doesn't exist\");\n        \n        tenderBids[input.tenderID].push(Bid({\n            bidID: input.bidID,\n            tenderID: input.tenderID,\n            supplier: msg.sender,\n            bidAmount: input.bidAmount,\n            timestamp: block.timestamp,\n            hashOfDocuments: input.hashOfDocuments,\n            isWinningBid: false\n        }));\n        emit BidSubmitted(input.tenderID, input.bidID, msg.sender);\n    }\n\n    function getBid(string memory tenderID, string memory bidID) external view returns (Bid memory) {\n        Bid[] memory bids = tenderBids[tenderID];\n        for (uint i = 0; i < bids.length; i++) {\n            if (keccak256(abi.encodePacked(bids[i].bidID)) == keccak256(abi.encodePacked(bidID))) {\n                return bids[i];\n            }\n        }\n        revert(\"Bid not found\");\n    }\n}\n\ncontract TendekoAwardManagement is TendekoStorage {\n    function awardTender(AwardInput memory input) external {\n        require(!tenders[input.tenderID].isEvaluated, \"Already evaluated\");\n        require(msg.sender == tenders[input.tenderID].procuringEntity, \"Not authorized\");\n        \n        awards[input.awardID] = Award({\n            awardID: input.awardID,\n            tenderID: input.tenderID,\n            bidID: input.bidID,\n            supplier: input.supplier,\n            awardDate: block.timestamp,\n            hashOfEvaluation: input.hashOfEvaluation\n        });\n        \n        tenders[input.tenderID].isEvaluated = true;\n        tenders[input.tenderID].status = \"COMPLETED\";\n        \n        emit TenderAwarded(input.tenderID, input.awardID, input.supplier);\n        emit TenderStatusUpdated(input.tenderID, \"COMPLETED\");\n    }\n\n    function getAward(string memory awardID) external view returns (Award memory) {\n        return awards[awardID];\n    }\n}\n\ncontract TendekoContractManagement is TendekoStorage {\n    function createContract(ContractInput memory input) external {\n        require(awards[input.awardID].supplier != address(0), \"Award doesn't exist\");\n        require(msg.sender == tenders[input.tenderID].procuringEntity, \"Not authorized\");\n        \n        contracts[input.contractID] = Contract({\n            contractID: input.contractID,\n            tenderID: input.tenderID,\n            awardID: input.awardID,\n            supplier: awards[input.awardID].supplier,\n            contractDate: block.timestamp,\n            contractValue: input.contractValue,\n            hashOfContract: input.hashOfContract,\n            status: \"ACTIVE\"\n        });\n        emit ContractSigned(input.tenderID, input.contractID, awards[input.awardID].supplier);\n    }\n\n    function getContract(string memory contractID) external view returns (Contract memory) {\n        return contracts[contractID];\n    }\n}\n\ncontract TendekoEProcurement is TendekoTenderManagement, TendekoBidManagement, TendekoAwardManagement, TendekoContractManagement {\n    address public admin;\n    address[] public authorizedEntities;\n    uint256 public minBidTimeWindow = 7 days; \n    bool public systemActive = true;\n    \n    event AdminChanged(address indexed previousAdmin, address indexed newAdmin);\n    event EntityAuthorized(address indexed entity);\n    event EntityDeauthorized(address indexed entity);\n    event SystemStatusChanged(bool active);\n    \n    modifier onlyAdmin() {\n        require(msg.sender == admin, \"Only admin can perform this action\");\n        _;\n    }\n    \n    constructor(address _initialAdmin) {\n        require(_initialAdmin != address(0), \"Invalid admin address\");\n        admin = _initialAdmin;\n        authorizedEntities.push(_initialAdmin); // Admin is an authorized entity by default\n        emit AdminChanged(address(0), _initialAdmin);\n        emit EntityAuthorized(_initialAdmin);\n    }\n    \n    // Admin functions to manage the system\n    function changeAdmin(address _newAdmin) external onlyAdmin {\n        require(_newAdmin != address(0), \"Invalid admin address\");\n        emit AdminChanged(admin, _newAdmin);\n        admin = _newAdmin;\n    }\n    \n    function authorizeEntity(address _entity) external onlyAdmin {\n        require(_entity != address(0), \"Invalid entity address\");\n        // Add logic to check if entity already exists\n        authorizedEntities.push(_entity);\n        emit EntityAuthorized(_entity);\n    }\n    \n    function deauthorizeEntity(address _entity) external onlyAdmin {\n        // Add logic to remove entity from authorizedEntities array\n        emit EntityDeauthorized(_entity);\n    }\n    \n    function setMinBidTimeWindow(uint256 _days) external onlyAdmin {\n        minBidTimeWindow = _days * 1 days;\n    }\n    \n    function toggleSystem(bool _active) external onlyAdmin {\n        systemActive = _active;\n        emit SystemStatusChanged(_active);\n    }\n\n}\n",
  "sourcePath": "/Users/munashenzira/Documents/Tendeko/smart_contract/contracts/TendekoEProcurement.sol",
  "compiler": {
    "name": "solc",
    "version": "0.8.21+commit.d9974bed.Emscripten.clang"
  },
  "schemaVersion": "3.4.16",
  "updatedAt": "2025-05-04T19:32:25.808Z",
  "devdoc": {
    "kind": "dev",
    "methods": {},
    "version": 1
  },
  "userdoc": {
    "kind": "user",
    "methods": {},
    "version": 1
  }
}