{
  "contractName": "TendekoEProcurement",
  "abi": [
    {
      "inputs": [
        {
          "internalType": "address",
          "name": "_initialAdmin",
          "type": "address"
        }
      ],
      "stateMutability": "nonpayable",
      "type": "constructor"
    },
    {
      "anonymous": false,
      "inputs": [
        {
          "indexed": true,
          "internalType": "address",
          "name": "previousAdmin",
          "type": "address"
        },
        {
          "indexed": true,
          "internalType": "address",
          "name": "newAdmin",
          "type": "address"
        }
      ],
      "name": "AdminChanged",
      "type": "event"
    },
    {
      "anonymous": false,
      "inputs": [
        {
          "indexed": true,
          "internalType": "string",
          "name": "tenderID",
          "type": "string"
        },
        {
          "indexed": false,
          "internalType": "string",
          "name": "bidID",
          "type": "string"
        },
        {
          "indexed": true,
          "internalType": "address",
          "name": "supplier",
          "type": "address"
        }
      ],
      "name": "BidSubmitted",
      "type": "event"
    },
    {
      "anonymous": false,
      "inputs": [
        {
          "indexed": true,
          "internalType": "string",
          "name": "tenderID",
          "type": "string"
        },
        {
          "indexed": false,
          "internalType": "string",
          "name": "contractID",
          "type": "string"
        },
        {
          "indexed": true,
          "internalType": "address",
          "name": "supplier",
          "type": "address"
        }
      ],
      "name": "ContractSigned",
      "type": "event"
    },
    {
      "anonymous": false,
      "inputs": [
        {
          "indexed": true,
          "internalType": "address",
          "name": "entity",
          "type": "address"
        }
      ],
      "name": "EntityAuthorized",
      "type": "event"
    },
    {
      "anonymous": false,
      "inputs": [
        {
          "indexed": true,
          "internalType": "address",
          "name": "entity",
          "type": "address"
        }
      ],
      "name": "EntityDeauthorized",
      "type": "event"
    },
    {
      "anonymous": false,
      "inputs": [
        {
          "indexed": false,
          "internalType": "bool",
          "name": "active",
          "type": "bool"
        }
      ],
      "name": "SystemStatusChanged",
      "type": "event"
    },
    {
      "anonymous": false,
      "inputs": [
        {
          "indexed": true,
          "internalType": "string",
          "name": "tenderID",
          "type": "string"
        },
        {
          "indexed": false,
          "internalType": "string",
          "name": "awardID",
          "type": "string"
        },
        {
          "indexed": true,
          "internalType": "address",
          "name": "supplier",
          "type": "address"
        }
      ],
      "name": "TenderAwarded",
      "type": "event"
    },
    {
      "anonymous": false,
      "inputs": [
        {
          "indexed": true,
          "internalType": "string",
          "name": "tenderID",
          "type": "string"
        },
        {
          "indexed": false,
          "internalType": "string",
          "name": "title",
          "type": "string"
        },
        {
          "indexed": false,
          "internalType": "uint256",
          "name": "closingDate",
          "type": "uint256"
        }
      ],
      "name": "TenderCreated",
      "type": "event"
    },
    {
      "anonymous": false,
      "inputs": [
        {
          "indexed": true,
          "internalType": "string",
          "name": "tenderID",
          "type": "string"
        },
        {
          "indexed": false,
          "internalType": "string",
          "name": "status",
          "type": "string"
        }
      ],
      "name": "TenderStatusUpdated",
      "type": "event"
    },
    {
      "inputs": [],
      "name": "admin",
      "outputs": [
        {
          "internalType": "address",
          "name": "",
          "type": "address"
        }
      ],
      "stateMutability": "view",
      "type": "function",
      "constant": true
    },
    {
      "inputs": [
        {
          "internalType": "uint256",
          "name": "",
          "type": "uint256"
        }
      ],
      "name": "authorizedEntities",
      "outputs": [
        {
          "internalType": "address",
          "name": "",
          "type": "address"
        }
      ],
      "stateMutability": "view",
      "type": "function",
      "constant": true
    },
    {
      "inputs": [
        {
          "components": [
            {
              "internalType": "string",
              "name": "tenderID",
              "type": "string"
            },
            {
              "internalType": "string",
              "name": "awardID",
              "type": "string"
            },
            {
              "internalType": "string",
              "name": "bidID",
              "type": "string"
            },
            {
              "internalType": "address",
              "name": "supplier",
              "type": "address"
            },
            {
              "internalType": "string",
              "name": "hashOfEvaluation",
              "type": "string"
            }
          ],
          "internalType": "struct TendekoStorage.AwardInput",
          "name": "input",
          "type": "tuple"
        }
      ],
      "name": "awardTender",
      "outputs": [],
      "stateMutability": "nonpayable",
      "type": "function"
    },
    {
      "inputs": [
        {
          "components": [
            {
              "internalType": "string",
              "name": "contractID",
              "type": "string"
            },
            {
              "internalType": "string",
              "name": "tenderID",
              "type": "string"
            },
            {
              "internalType": "string",
              "name": "awardID",
              "type": "string"
            },
            {
              "internalType": "uint256",
              "name": "contractValue",
              "type": "uint256"
            },
            {
              "internalType": "string",
              "name": "hashOfContract",
              "type": "string"
            }
          ],
          "internalType": "struct TendekoStorage.ContractInput",
          "name": "input",
          "type": "tuple"
        }
      ],
      "name": "createContract",
      "outputs": [],
      "stateMutability": "nonpayable",
      "type": "function"
    },
    {
      "inputs": [
        {
          "components": [
            {
              "internalType": "string",
              "name": "tenderID",
              "type": "string"
            },
            {
              "internalType": "string",
              "name": "title",
              "type": "string"
            },
            {
              "internalType": "uint256",
              "name": "closingDate",
              "type": "uint256"
            },
            {
              "internalType": "uint256",
              "name": "valueAmount",
              "type": "uint256"
            },
            {
              "internalType": "string",
              "name": "valueCurrency",
              "type": "string"
            },
            {
              "internalType": "string",
              "name": "hashOfDetails",
              "type": "string"
            }
          ],
          "internalType": "struct TendekoStorage.TenderInput",
          "name": "input",
          "type": "tuple"
        }
      ],
      "name": "createTender",
      "outputs": [],
      "stateMutability": "nonpayable",
      "type": "function"
    },
    {
      "inputs": [
        {
          "internalType": "string",
          "name": "awardID",
          "type": "string"
        }
      ],
      "name": "getAward",
      "outputs": [
        {
          "components": [
            {
              "internalType": "string",
              "name": "awardID",
              "type": "string"
            },
            {
              "internalType": "string",
              "name": "tenderID",
              "type": "string"
            },
            {
              "internalType": "string",
              "name": "bidID",
              "type": "string"
            },
            {
              "internalType": "address",
              "name": "supplier",
              "type": "address"
            },
            {
              "internalType": "uint256",
              "name": "awardDate",
              "type": "uint256"
            },
            {
              "internalType": "string",
              "name": "hashOfEvaluation",
              "type": "string"
            }
          ],
          "internalType": "struct TendekoStorage.Award",
          "name": "",
          "type": "tuple"
        }
      ],
      "stateMutability": "view",
      "type": "function",
      "constant": true
    },
    {
      "inputs": [
        {
          "internalType": "string",
          "name": "tenderID",
          "type": "string"
        },
        {
          "internalType": "string",
          "name": "bidID",
          "type": "string"
        }
      ],
      "name": "getBid",
      "outputs": [
        {
          "components": [
            {
              "internalType": "string",
              "name": "bidID",
              "type": "string"
            },
            {
              "internalType": "string",
              "name": "tenderID",
              "type": "string"
            },
            {
              "internalType": "address",
              "name": "supplier",
              "type": "address"
            },
            {
              "internalType": "uint256",
              "name": "bidAmount",
              "type": "uint256"
            },
            {
              "internalType": "uint256",
              "name": "timestamp",
              "type": "uint256"
            },
            {
              "internalType": "string",
              "name": "hashOfDocuments",
              "type": "string"
            },
            {
              "internalType": "bool",
              "name": "isWinningBid",
              "type": "bool"
            }
          ],
          "internalType": "struct TendekoStorage.Bid",
          "name": "",
          "type": "tuple"
        }
      ],
      "stateMutability": "view",
      "type": "function",
      "constant": true
    },
    {
      "inputs": [
        {
          "internalType": "string",
          "name": "tenderID",
          "type": "string"
        }
      ],
      "name": "getBidsForTender",
      "outputs": [
        {
          "components": [
            {
              "internalType": "string",
              "name": "bidID",
              "type": "string"
            },
            {
              "internalType": "string",
              "name": "tenderID",
              "type": "string"
            },
            {
              "internalType": "address",
              "name": "supplier",
              "type": "address"
            },
            {
              "internalType": "uint256",
              "name": "bidAmount",
              "type": "uint256"
            },
            {
              "internalType": "uint256",
              "name": "timestamp",
              "type": "uint256"
            },
            {
              "internalType": "string",
              "name": "hashOfDocuments",
              "type": "string"
            },
            {
              "internalType": "bool",
              "name": "isWinningBid",
              "type": "bool"
            }
          ],
          "internalType": "struct TendekoStorage.Bid[]",
          "name": "",
          "type": "tuple[]"
        }
      ],
      "stateMutability": "view",
      "type": "function",
      "constant": true
    },
    {
      "inputs": [
        {
          "internalType": "string",
          "name": "contractID",
          "type": "string"
        }
      ],
      "name": "getContract",
      "outputs": [
        {
          "components": [
            {
              "internalType": "string",
              "name": "contractID",
              "type": "string"
            },
            {
              "internalType": "string",
              "name": "tenderID",
              "type": "string"
            },
            {
              "internalType": "string",
              "name": "awardID",
              "type": "string"
            },
            {
              "internalType": "address",
              "name": "supplier",
              "type": "address"
            },
            {
              "internalType": "uint256",
              "name": "contractDate",
              "type": "uint256"
            },
            {
              "internalType": "uint256",
              "name": "contractValue",
              "type": "uint256"
            },
            {
              "internalType": "string",
              "name": "hashOfContract",
              "type": "string"
            },
            {
              "internalType": "string",
              "name": "status",
              "type": "string"
            }
          ],
          "internalType": "struct TendekoStorage.Contract",
          "name": "",
          "type": "tuple"
        }
      ],
      "stateMutability": "view",
      "type": "function",
      "constant": true
    },
    {
      "inputs": [
        {
          "internalType": "string",
          "name": "tenderID",
          "type": "string"
        }
      ],
      "name": "getTender",
      "outputs": [
        {
          "internalType": "string",
          "name": "tenderID_",
          "type": "string"
        },
        {
          "internalType": "string",
          "name": "title",
          "type": "string"
        },
        {
          "internalType": "uint256",
          "name": "closingDate",
          "type": "uint256"
        },
        {
          "internalType": "uint256",
          "name": "valueAmount",
          "type": "uint256"
        },
        {
          "internalType": "string",
          "name": "valueCurrency",
          "type": "string"
        },
        {
          "internalType": "string",
          "name": "status",
          "type": "string"
        },
        {
          "internalType": "string",
          "name": "hashOfDetails",
          "type": "string"
        },
        {
          "internalType": "address",
          "name": "procuringEntity",
          "type": "address"
        },
        {
          "internalType": "bool",
          "name": "isEvaluated",
          "type": "bool"
        }
      ],
      "stateMutability": "view",
      "type": "function",
      "constant": true
    },
    {
      "inputs": [],
      "name": "minBidTimeWindow",
      "outputs": [
        {
          "internalType": "uint256",
          "name": "",
          "type": "uint256"
        }
      ],
      "stateMutability": "view",
      "type": "function",
      "constant": true
    },
    {
      "inputs": [
        {
          "components": [
            {
              "internalType": "string",
              "name": "tenderID",
              "type": "string"
            },
            {
              "internalType": "string",
              "name": "bidID",
              "type": "string"
            },
            {
              "internalType": "uint256",
              "name": "bidAmount",
              "type": "uint256"
            },
            {
              "internalType": "string",
              "name": "hashOfDocuments",
              "type": "string"
            }
          ],
          "internalType": "struct TendekoStorage.BidInput",
          "name": "input",
          "type": "tuple"
        }
      ],
      "name": "submitBid",
      "outputs": [],
      "stateMutability": "nonpayable",
      "type": "function"
    },
    {
      "inputs": [],
      "name": "systemActive",
      "outputs": [
        {
          "internalType": "bool",
          "name": "",
          "type": "bool"
        }
      ],
      "stateMutability": "view",
      "type": "function",
      "constant": true
    },
    {
      "inputs": [
        {
          "internalType": "string",
          "name": "_tenderID",
          "type": "string"
        },
        {
          "internalType": "string",
          "name": "_status",
          "type": "string"
        }
      ],
      "name": "updateTenderStatus",
      "outputs": [],
      "stateMutability": "nonpayable",
      "type": "function"
    },
    {
      "inputs": [
        {
          "internalType": "address",
          "name": "_newAdmin",
          "type": "address"
        }
      ],
      "name": "changeAdmin",
      "outputs": [],
      "stateMutability": "nonpayable",
      "type": "function"
    },
    {
      "inputs": [
        {
          "internalType": "address",
          "name": "_entity",
          "type": "address"
        }
      ],
      "name": "authorizeEntity",
      "outputs": [],
      "stateMutability": "nonpayable",
      "type": "function"
    },
    {
      "inputs": [
        {
          "internalType": "address",
          "name": "_entity",
          "type": "address"
        }
      ],
      "name": "deauthorizeEntity",
      "outputs": [],
      "stateMutability": "nonpayable",
      "type": "function"
    },
    {
      "inputs": [
        {
          "internalType": "uint256",
          "name": "_days",
          "type": "uint256"
        }
      ],
      "name": "setMinBidTimeWindow",
      "outputs": [],
      "stateMutability": "nonpayable",
      "type": "function"
    },
    {
      "inputs": [
        {
          "internalType": "bool",
          "name": "_active",
          "type": "bool"
        }
      ],
      "name": "toggleSystem",
      "outputs": [],
      "stateMutability": "nonpayable",
      "type": "function"
    }
  ],
  "bytecode": "0x60806040523462000037576200001e6200001862000132565b62000498565b620000286200003d565b61370b620005b0823961370b90f35b62000043565b60405190565b600080fd5b601f801991011690565b7f4e487b7100000000000000000000000000000000000000000000000000000000600052604160045260246000fd5b906200008d9062000048565b810190811067ffffffffffffffff821117620000a857604052565b62000052565b90620000c5620000bd6200003d565b928362000081565b565b600080fd5b600160a060020a031690565b620000e390620000cc565b90565b620000f181620000d8565b03620000f957565b600080fd5b905051906200010d82620000e6565b565b906020828203126200012c576200012991600001620000fe565b90565b620000c7565b6200015562003cbb803803806200014981620000ae565b9283398101906200010f565b90565b60010290565b906200016d6000199162000158565b9181191691161790565b90565b90565b90565b62000199620001936200019f9262000177565b6200017d565b6200017a565b90565b90565b90620001bf620001b9620001c79262000180565b620001a2565b82546200015e565b9055565b90620001d960ff9162000158565b9181191691161790565b151590565b620001f390620001e3565b90565b90565b90620002136200020d6200021b92620001e8565b620001f6565b8254620001cb565b9055565b90565b6200023b6200023562000241926200021f565b6200017d565b620000cc565b90565b6200024f9062000222565b90565b60209181520190565b60007f496e76616c69642061646d696e20616464726573730000000000000000000000910152565b62000292601560209262000252565b6200029d816200025b565b0190565b620002b9906020810190600081830391015262000283565b90565b15620002c457565b620002ce6200003d565b7f08c379a0000000000000000000000000000000000000000000000000000000008152806200030060048201620002a1565b0390fd5b9062000318600160a060020a039162000158565b9181191691161790565b6200033b620003356200034192620000cc565b6200017d565b620000cc565b90565b6200034f9062000322565b90565b6200035d9062000344565b90565b90565b906200037d62000377620003859262000352565b62000360565b825462000304565b9055565b90565b600052602060002090565b7f4e487b7100000000000000000000000000000000000000000000000000000000600052603260045260246000fd5b5490565b620003d581620003c6565b821015620003f357620003ea6001916200038c565b91020190600090565b62000397565b60020a0290565b91906008620004259102916200041e600160a060020a0384620003f9565b92620003f9565b9181191691161790565b91906200044a62000444620004539362000352565b62000360565b90835462000400565b9055565b90815491680100000000000000008310156200048c5782620004839160016200048a95018155620003ca565b906200042f565b565b62000052565b60000190565b620004a862093a806006620001a5565b620004b660016007620001f9565b620004e481620004dc620004d5620004cf600062000244565b620000d8565b91620000d8565b1415620002bc565b620004f181600462000363565b6200050962000501600562000389565b829062000457565b62000515600062000244565b816200054d620005467f7e644d79422f17c01e4894b5f4f588d331ebfa28653d42ae832dc59e38c9798f9362000352565b9162000352565b91620005586200003d565b80620005648162000492565b0390a3620005937fd900914105d2687a75a707cd12ecd9fa52b6e70266117a9e338c3211ac63a2af9162000352565b906200059e6200003d565b80620005aa8162000492565b0390a256fe60806040526004361015610013575b6112ab565b61001e60003561014d565b806302031024146101485780630322a7561461014357806311e1ec4a1461013e5780631e05d24b146101395780633431d5c914610134578063358177731461012f57806341ed2a371461012a578063495ff7da146101255780635332194f1461012057806362f058c81461011b5780638871bb3b146101165780638f283970146101115780639d845e861461010c5780639da6888114610107578063a20ae23214610102578063c9d949ab146100fd578063e6b0ed17146100f8578063f851a440146100f35763fec9bdf90361000e57611278565b611200565b6111bb565b611137565b61106a565b610f15565b610e3a565b610cfa565b610cc7565b610c88565b610b6e565b6109f8565b6109c5565b610883565b6106d9565b610631565b6105a0565b610375565b6101f3565b7c0100000000000000000000000000000000000000000000000000000000900490565b60405190565b600080fd5b600080fd5b600080fd5b73ffffffffffffffffffffffffffffffffffffffff1690565b6101a790610185565b90565b6101b38161019e565b036101ba57565b600080fd5b905035906101cc826101aa565b565b906020828203126101e8576101e5916000016101bf565b90565b61017b565b60000190565b346102215761020b6102063660046101ce565b61351b565b610213610170565b8061021d816101ed565b0390f35b610176565b90565b61023281610226565b0361023957565b600080fd5b9050359061024b82610229565b565b90602082820312610267576102649160000161023e565b90565b61017b565b7f4e487b7100000000000000000000000000000000000000000000000000000000600052603260045260246000fd5b5490565b600052602060002090565b600052602060002090565b6102be8161029b565b8210156102d9576102d060019161029f565b91020190600090565b61026c565b60020a900490565b73ffffffffffffffffffffffffffffffffffffffff1690565b61030f90600861031493026102de565b6102e6565b90565b9061032291546102ff565b90565b60056103308161029b565b82101561034d5761034a91610344916102b5565b90610317565b90565b600080fd5b61035b9061019e565b9052565b919061037390600060208501940190610352565b565b346103a5576103a161039061038b36600461024d565b610325565b610398610170565b9182918261035f565b0390f35b610176565b600080fd5b601f801991011690565b7f4e487b7100000000000000000000000000000000000000000000000000000000600052604160045260246000fd5b906103f2906103af565b810190811067ffffffffffffffff82111761040c57604052565b6103b9565b9061042461041d610170565b92836103e8565b565b600080fd5b600080fd5b600080fd5b67ffffffffffffffff81116104535761044f6020916103af565b0190565b6103b9565b90826000939282370152565b9092919261047961047482610435565b610411565b938185526020850190828401116104955761049392610458565b565b610430565b9080601f830112156104b8578160206104b593359101610464565b90565b61042b565b919091608081840312610565576104d46080610411565b92600082013567ffffffffffffffff811161056057816104f591840161049a565b6000850152602082013567ffffffffffffffff811161055b578161051a91840161049a565b602085015261052c816040840161023e565b6040850152606082013567ffffffffffffffff81116105565761054f920161049a565b6060830152565b610426565b610426565b610426565b6103aa565b9060208282031261059b57600082013567ffffffffffffffff81116105965761059392016104bd565b90565b610180565b61017b565b346105ce576105b86105b336600461056a565b612290565b6105c0610170565b806105ca816101ed565b0390f35b610176565b91909160408184031261062c57600081013567ffffffffffffffff8111610627578361060091830161049a565b92602082013567ffffffffffffffff81116106225761061f920161049a565b90565b610180565b610180565b61017b565b346106605761064a6106443660046105d3565b90611bc6565b610652610170565b8061065c816101ed565b0390f35b610176565b600091031261067057565b61017b565b60ff1690565b61068b90600861069093026102de565b610675565b90565b9061069e915461067b565b90565b6106ae6007600090610693565b90565b151590565b6106bf906106b1565b9052565b91906106d7906000602085019401906106b6565b565b34610709576106e9366004610665565b6107056106f46106a1565b6106fc610170565b918291826106c3565b0390f35b610176565b9060208282031261073f57600082013567ffffffffffffffff811161073a57610737920161049a565b90565b610180565b61017b565b5190565b60209181520190565b60005b838110610765575050906000910152565b806020918301518185015201610754565b61079561079e6020936107a39361078c81610744565b93848093610748565b95869101610751565b6103af565b0190565b6107b09061019e565b9052565b6107bd90610226565b9052565b6108679160e061085661080e6107fc6107ea610100860160008801518782036000890152610776565b60208701518682036020880152610776565b60408601518582036040870152610776565b610820606086015160608601906107a7565b610832608086015160808601906107b4565b61084460a086015160a08601906107b4565b60c085015184820360c0860152610776565b9201519060e0818403910152610776565b90565b61088091602082019160008184039101526107c1565b90565b346108b3576108af61089e61089936600461070e565b6130c4565b6108a6610170565b9182918261086a565b0390f35b610176565b91909160a08184031261098a576108cf60a0610411565b92600082013567ffffffffffffffff811161098557816108f091840161049a565b6000850152602082013567ffffffffffffffff8111610980578161091591840161049a565b6020850152604082013567ffffffffffffffff811161097b578161093a91840161049a565b604085015261094c81606084016101bf565b6060850152608082013567ffffffffffffffff81116109765761096f920161049a565b6080830152565b610426565b610426565b610426565b610426565b6103aa565b906020828203126109c057600082013567ffffffffffffffff81116109bb576109b892016108b8565b90565b610180565b61017b565b346109f3576109dd6109d836600461098f565b612904565b6109e5610170565b806109ef816101ed565b0390f35b610176565b34610a2657610a10610a0b36600461024d565b613649565b610a18610170565b80610a22816101ed565b0390f35b610176565b5190565b60209181520190565b60200190565b610a47906106b1565b9052565b90610ad79060c080610acc610a84610a7260e0860160008901518782036000890152610776565b60208801518682036020880152610776565b610a96604088015160408701906107a7565b610aa8606088015160608701906107b4565b610aba608088015160808701906107b4565b60a087015185820360a0870152610776565b940151910190610a3e565b90565b90610ae491610a4b565b90565b60200190565b90610b01610afa83610a2b565b8092610a2f565b9081610b1260208302840194610a38565b926000915b838310610b2657505050505090565b90919293946020610b48610b4283856001950387528951610ada565b97610ae7565b9301930191939290610b17565b610b6b9160208201916000818403910152610aed565b90565b34610b9e57610b9a610b89610b8436600461070e565b611f8b565b610b91610170565b91829182610b55565b0390f35b610176565b60209181520190565b610bcb610bd4602093610bd993610bc281610744565b93848093610ba3565b95869101610751565b6103af565b0190565b610be690610226565b9052565b9495610c58610c749461010098610c4b610c7f98610c869d9f9e9c97610c368c610c4192610c28610c669b6101208401908482036000860152610bac565b916020818403910152610bac565b9460408d0190610bdd565b60608b0190610bdd565b88820360808a0152610bac565b9086820360a0880152610bac565b9084820360c0860152610bac565b9660e0830190610352565b01906106b6565b565b34610cc257610cbe610ca3610c9e36600461070e565b611d0b565b95610cb5999799959195949294610170565b998a998a610bea565b0390f35b610176565b34610cf557610cdf610cda3660046101ce565b613598565b610ce7610170565b80610cf1816101ed565b0390f35b610176565b34610d2857610d12610d0d3660046101ce565b6132fc565b610d1a610170565b80610d24816101ed565b0390f35b610176565b91909160a081840312610dff57610d4460a0610411565b92600082013567ffffffffffffffff8111610dfa5781610d6591840161049a565b6000850152602082013567ffffffffffffffff8111610df55781610d8a91840161049a565b6020850152604082013567ffffffffffffffff8111610df05781610daf91840161049a565b6040850152610dc1816060840161023e565b6060850152608082013567ffffffffffffffff8111610deb57610de4920161049a565b6080830152565b610426565b610426565b610426565b610426565b6103aa565b90602082820312610e3557600082013567ffffffffffffffff8111610e3057610e2d9201610d2d565b90565b610180565b61017b565b34610e6857610e52610e4d366004610e04565b612db4565b610e5a610170565b80610e64816101ed565b0390f35b610176565b90610ef99060c080610eee610ea6610e9460e0860160008901518782036000890152610776565b60208801518682036020880152610776565b610eb8604088015160408701906107a7565b610eca606088015160608701906107b4565b610edc608088015160808701906107b4565b60a087015185820360a0870152610776565b940151910190610a3e565b90565b610f129160208201916000818403910152610e6d565b90565b34610f4657610f42610f31610f2b3660046105d3565b9061256e565b610f39610170565b91829182610efc565b0390f35b610176565b91909160c08184031261102f57610f6260c0610411565b92600082013567ffffffffffffffff811161102a5781610f8391840161049a565b6000850152602082013567ffffffffffffffff81116110255781610fa891840161049a565b6020850152610fba816040840161023e565b6040850152610fcc816060840161023e565b6060850152608082013567ffffffffffffffff81116110205781610ff191840161049a565b608085015260a082013567ffffffffffffffff811161101b57611014920161049a565b60a0830152565b610426565b610426565b610426565b610426565b6103aa565b9060208282031261106557600082013567ffffffffffffffff81116110605761105d9201610f4b565b90565b610180565b61017b565b346110985761108261107d366004611034565b611911565b61108a610170565b80611094816101ed565b0390f35b610176565b61111b9160a06110e66110d46110c260c0850160008701518682036000880152610776565b60208601518582036020870152610776565b60408501518482036040860152610776565b926110f9606082015160608501906107a7565b61110b608082015160808501906107b4565b01519060a0818403910152610776565b90565b611134916020820191600081840391015261109d565b90565b346111675761116361115261114d36600461070e565b612bde565b61115a610170565b9182918261111e565b0390f35b610176565b90565b61117f90600861118493026102de565b61116c565b90565b90611192915461116f565b90565b6111a26006600090611187565b90565b91906111b990600060208501940190610bdd565b565b346111eb576111cb366004610665565b6111e76111d6611195565b6111de610170565b918291826111a5565b0390f35b610176565b6111fd6004600090610317565b90565b3461123057611210366004610665565b61122c61121b6111f0565b611223610170565b9182918261035f565b0390f35b610176565b61123e816106b1565b0361124557565b600080fd5b9050359061125782611235565b565b90602082820312611273576112709160000161124a565b90565b61017b565b346112a65761129061128b366004611259565b6136ca565b611298610170565b806112a2816101ed565b0390f35b610176565b600080fd5b6112ba9051610226565b90565b6112c8610120610411565b90565b52565b906112d890610226565b9052565b906112ee6112e983610435565b610411565b918252565b60007f4143544956450000000000000000000000000000000000000000000000000000910152565b61132560066112dc565b90611332602083016112f3565b565b61133c61131b565b90565b906113499061019e565b9052565b90611357906106b1565b9052565b905090565b61138561137c9260209261137381610744565b9485809361135b565b93849101610751565b0190565b90565b61139861139d91610226565b611389565b9052565b6113b16113b89160209493611360565b809261138c565b0190565b6113d06113c7610170565b928392836113a1565b03902090565b6113df916113bc565b90565b7f4e487b7100000000000000000000000000000000000000000000000000000000600052600060045260246000fd5b5190565b7f4e487b7100000000000000000000000000000000000000000000000000000000600052602260045260246000fd5b9060016002830492168015611464575b602083101461145f57565b611415565b91607f1691611454565b600052602060002090565b601f602091010490565b60020a0290565b919060086114a69102916114a060001984611483565b92611483565b9181191691161790565b90565b6114c76114c26114cc92610226565b6114b0565b610226565b90565b90565b91906114e86114e36114f0936114b3565b6114cf565b90835461148a565b9055565b600090565b61150b916115056114f4565b916114d2565b565b5b818110611519575050565b8061152760006001936114f9565b0161150e565b9190601f811161153d575b505050565b61154961156e9361146e565b90602061155584611479565b83019310611576575b61156790611479565b019061150d565b388080611538565b91506115678192905061155e565b9061159590600019906008026102de565b191690565b816115a491611584565b906002021790565b906115b681610744565b9067ffffffffffffffff8211611678576115da826115d48554611444565b8561152d565b602090601f831160011461160f579180916115fe93600092611603575b505061159a565b90555b565b909150015138806115f7565b601f1983169161161e8561146e565b9260005b81811061166057509160029391856001969410611646575b50505002019055611601565b611656910151601f841690611584565b905538808061163a565b91936020600181928787015181550195019201611622565b6103b9565b90611687916115ac565b565b60010290565b9061169c60001991611689565b9181191691161790565b906116bb6116b66116c2926114b3565b6114cf565b825461168f565b9055565b6116d0905161019e565b90565b906116f273ffffffffffffffffffffffffffffffffffffffff91611689565b9181191691161790565b61171061170b61171592610185565b6114b0565b610185565b90565b611721906116fc565b90565b61172d90611718565b90565b90565b9061174861174361174f92611724565b611730565b82546116d3565b9055565b61175d90516106b1565b90565b740100000000000000000000000000000000000000000290565b9061179a74ff000000000000000000000000000000000000000091611760565b9181191691161790565b6117ad906106b1565b90565b90565b906117c86117c36117cf926117a4565b6117b0565b825461177a565b9055565b906118af61010060076118b5946117f9600082016117f360008801611411565b9061167d565b6118126001820161180c60208801611411565b9061167d565b61182b60028201611825604088016112b0565b906116a6565b6118446003820161183e606088016112b0565b906116a6565b61185d6004820161185760808801611411565b9061167d565b6118766005820161187060a08801611411565b9061167d565b61188f6006820161188960c08801611411565b9061167d565b6118a78282016118a160e088016116c6565b90611733565b019201611753565b906117b3565b565b906118c1916117d3565b565b6118cc91611360565b90565b6118e4906118db610170565b918291826118c3565b03902090565b9291602061190761190f9360408701908782036000890152610bac565b940190610bdd565b565b8060000151816020015182604001611928906112b0565b83606001611935906112b0565b84608001518560a0015191339360009561194d6112bd565b97600089019061195c916112cb565b602088019061196a916112cb565b6040870190611978916112ce565b6060860190611986916112ce565b6080850190611994916112cb565b61199c611334565b60a08501906119aa916112cb565b60c08401906119b8916112cb565b60e08301906119c69161133f565b6101008201906119d59161134d565b600082600001516119e5916113d6565b906119ef916118b7565b8060000151816020015191604001611a06906112b0565b917f7c02dbece118b74b75a859fcad8f7ad735dac53aafcf2b3867bd6e628a09509c91611a32906118cf565b92611a3b610170565b918291611a4891836118ea565b0390a2565b6001900490565b611a60611a6591611a4d565b6102e6565b90565b611a729054611a54565b90565b60007f4e6f7420617574686f72697a6564000000000000000000000000000000000000910152565b611aaa600e602092610ba3565b611ab381611a75565b0190565b611acd9060208101906000818303910152611a9d565b90565b15611ad757565b611adf610170565b7f08c379a000000000000000000000000000000000000000000000000000000000815280611b0f60048201611ab7565b0390fd5b90611b4f91611b4a81611b44611b3e611b396007611b33339560006113d6565b01611a68565b61019e565b9161019e565b14611ad0565b611b6a565b565b611b679160208201916000818403910152610bac565b90565b611b82826005611b7c600085906113d6565b0161167d565b611bc1611baf7f14fa414b4bcec7f1b2b9919714819414dd5cd58dffa8b56430419db625201129926118cf565b92611bb8610170565b91829182611b51565b0390a2565b90611bd091611b13565b565b606090565b600090565b600090565b90565b611bf0611bf591611a4d565b61116c565b90565b611c029054611be4565b90565b74010000000000000000000000000000000000000000900490565b611c2c611c3191611c05565b610675565b90565b611c3e9054611c20565b90565b9060009291805490611c5c611c5583611444565b8094610748565b91600181169081600014611cb55750600114611c78575b505050565b611c85919293945061146e565b916000925b818410611c9d5750500190388080611c73565b60018160209295939554848601520191019290611c8a565b92949550505060ff1916825215156020020190388080611c73565b90611cda91611c41565b90565b90611cfd611cf692611ced610170565b93848092611cd0565b03836103e8565b565b611d0890611cdd565b90565b611d6a611d6f91611d1a611bd2565b50611d23611bd2565b50611d2c6114f4565b50611d356114f4565b50611d3e611bd2565b50611d47611bd2565b50611d50611bd2565b50611d59611bd7565b50611d62611bdc565b5060006113d6565b611be1565b9060008201906001830192611d8660028201611bf8565b92611d9360038301611bf8565b92600483019260058101926006820192611de9611de3611ddd611dd5611dcf611dc96007611dc2818b01611a68565b9901611c34565b96611cff565b9c611cff565b9a9998611cff565b96611cff565b94611cff565b929190565b606090565b611dfc916113bc565b90565b5490565b67ffffffffffffffff8111611e1b5760208091020190565b6103b9565b90611e32611e2d83611e03565b610411565b918252565b600052602060002090565b611e4e611e5391611a4d565b610675565b90565b611e609054611e42565b90565b611e6d60e0610411565b90565b90611f21611f186006611e81611e63565b94611e9a611e9160008301611cdd565b600088016112cb565b611eb2611ea960018301611cdd565b602088016112cb565b611eca611ec160028301611a68565b6040880161133f565b611ee2611ed960038301611bf8565b606088016112ce565b611efa611ef160048301611bf8565b608088016112ce565b611f12611f0960058301611cdd565b60a088016112cb565b01611e56565b60c0840161134d565b565b611f2c90611e70565b90565b90611f3982611dff565b611f4281611e20565b92611f506020850191611e37565b6000915b838310611f615750505050565b60076020600192611f7185611f23565b815201920192019190611f54565b611f8890611f2f565b90565b611fa2611fa791611f9a611dee565b506001611df3565b611f7f565b90565b60007f54656e64657220636c6f73656400000000000000000000000000000000000000910152565b611fdf600d602092610ba3565b611fe881611faa565b0190565b6120029060208101906000818303910152611fd2565b90565b1561200c57565b612014610170565b7f08c379a00000000000000000000000000000000000000000000000000000000081528061204460048201611fec565b0390fd5b90565b6120559054611444565b90565b90565b61206f61206a61207492612058565b6114b0565b610226565b90565b60007f54656e64657220646f65736e2774206578697374000000000000000000000000910152565b6120ac6014602092610ba3565b6120b581612077565b0190565b6120cf906020810190600081830391015261209f565b90565b156120d957565b6120e1610170565b7f08c379a000000000000000000000000000000000000000000000000000000000815280612111600482016120b9565b0390fd5b90565b61212260e0610411565b90565b600052602060002090565b5490565b61213d81612130565b8210156121585761214f600791612125565b91020190600090565b61026c565b9061216960ff91611689565b9181191691161790565b9061218861218361218f926117a4565b6117b0565b825461215d565b9055565b9061223d60c06006612243946121b8600082016121b260008801611411565b9061167d565b6121d1600182016121cb60208801611411565b9061167d565b6121ea600282016121e4604088016116c6565b90611733565b612203600382016121fd606088016112b0565b906116a6565b61221c60048201612216608088016112b0565b906116a6565b6122356005820161222f60a08801611411565b9061167d565b019201611753565b90612173565b565b91906122565761225491612193565b565b6113e2565b908154916801000000000000000083101561228b578261228391600161228995018155612134565b90612245565b565b6103b9565b600081600001516122a0916113d6565b6002016122ac90611bf8565b426122b690610226565b906122c090610226565b116122ca90612005565b600081600001516122da916113d6565b6005016122e690612048565b6122ef9061204b565b60006122fa9061205b565b9061230490610226565b1161230e906120d2565b6001816000015161231e91611df3565b61232790612115565b81602001518260000151338460400161233f906112b0565b4290866060015192600094612352612118565b966000880190612361916112cb565b602087019061236f916112cb565b604086019061237d9161133f565b606085019061238b916112ce565b6080840190612399916112ce565b60a08301906123a7916112cb565b60c08201906123b59161134d565b6123be9161225b565b806000015190602001519033907f5f4740be58ed7623a9d85d60adac725294988d33a6257286defa63fe20e42569906123f6906118cf565b9161240090611724565b92612409610170565b612414819282611b51565b0390a3565b606090565b600090565b600090565b600090565b612435611e63565b90602080808080808088612447612419565b815201612452612419565b81520161245d61241e565b815201612468612423565b815201612473612423565b81520161247e612419565b815201612489612428565b81525050565b61249761242d565b90565b7f4e487b7100000000000000000000000000000000000000000000000000000000600052601160045260246000fd5b6124d290610226565b60001981146124e15760010190565b61249a565b906124f082610a2b565b811015612501576020809102010190565b61026c565b60200190565b5190565b90565b60007f426964206e6f7420666f756e6400000000000000000000000000000000000000910152565b612548600d602092610ba3565b61255181612513565b0190565b61256b906020810190600081830391015261253b565b90565b61258561258a9161257d61248f565b506001611df3565b611f7f565b612594600061205b565b5b806125b06125aa6125a585610a2b565b610226565b91610226565b1015612672576125e06125ef60006125c98585906124e6565b5101516125d4610170565b928391602083016118c3565b602082018103825203826103e8565b6126016125fb8261250c565b91612506565b2061265061264a61262361263287612617610170565b928391602083016118c3565b602082018103825203826103e8565b61264461263e8261250c565b91612506565b20612510565b91612510565b146126635761265e906124c9565b612595565b9061266e92506124e6565b5190565b61267a610170565b7f08c379a0000000000000000000000000000000000000000000000000000000008152806126aa60048201612555565b0390fd5b60007f416c7265616479206576616c7561746564000000000000000000000000000000910152565b6126e36011602092610ba3565b6126ec816126ae565b0190565b61270690602081019060008183039101526126d6565b90565b1561271057565b612718610170565b7f08c379a000000000000000000000000000000000000000000000000000000000815280612748600482016126f0565b0390fd5b61275660c0610411565b90565b612762916113bc565b90565b906127f660a060056127fc9461278a6000820161278460008801611411565b9061167d565b6127a36001820161279d60208801611411565b9061167d565b6127bc600282016127b660408801611411565b9061167d565b6127d5600382016127cf606088016116c6565b90611733565b6127ee600482016127e8608088016112b0565b906116a6565b019201611411565b9061167d565b565b9061280891612765565b565b9190601f811161281a575b505050565b61282661284b936102aa565b90602061283284611479565b83019310612853575b61284490611479565b019061150d565b388080612815565b91506128448192905061283b565b61287660096128708354611444565b8361280a565b60127f434f4d504c455445440000000000000000000000000000000000000000000000019055565b6128a790612861565b565b60007f434f4d504c455445440000000000000000000000000000000000000000000000910152565b6128de6009602092610ba3565b6128e7816128a9565b0190565b61290190602081019060008183039101526128d1565b90565b60009061293161292c61292660076129208687870151906113d6565b01611c34565b156106b1565b612709565b6129653361295f612959612954600761294e8889890151906113d6565b01611a68565b61019e565b9161019e565b14611ad0565b6129ef60208201516129da848401516129d160408601516129c861298b606089016116c6565b6129bf42936129b660808c0151976129ad6129a461274c565b9b8f8d016112cb565b60208b016112cb565b604089016112cb565b6060870161133f565b608085016112ce565b60a083016112cb565b6129ea6002602085015190612759565b6127fe565b612a0a60016007612a048586860151906113d6565b016117b3565b612a236005612a1d8485850151906113d6565b0161289e565b81810151602082015190612a39606084016116c6565b90612a82612a70612a6a7fbfe0f333d62c034072f781f38d906cac586c0304c5e487bb6660024cbee93ffe936118cf565b93611724565b93612a79610170565b91829182611b51565b0390a30151612ab17f14fa414b4bcec7f1b2b9919714819414dd5cd58dffa8b56430419db625201129916118cf565b90612aba610170565b80612ac4816128eb565b0390a2565b612ad360c0610411565b90565b612ade612ac9565b906020808080808087612aef612419565b815201612afa612419565b815201612b05612419565b815201612b1061241e565b815201612b1b612423565b815201612b26612419565b81525050565b612b34612ad6565b90565b90612bd0612bc76005612b48612ac9565b94612b61612b5860008301611cdd565b600088016112cb565b612b79612b7060018301611cdd565b602088016112cb565b612b91612b8860028301611cdd565b604088016112cb565b612ba9612ba060038301611a68565b6060880161133f565b612bc1612bb860048301611bf8565b608088016112ce565b01611cdd565b60a084016112cb565b565b612bdb90612b37565b90565b612bf5612bfa91612bed612b2c565b506002612759565b612bd2565b90565b612c11612c0c612c1692612058565b6114b0565b610185565b90565b612c2290612bfd565b90565b60007f417761726420646f65736e277420657869737400000000000000000000000000910152565b612c5a6013602092610ba3565b612c6381612c25565b0190565b612c7d9060208101906000818303910152612c4d565b90565b15612c8757565b612c8f610170565b7f08c379a000000000000000000000000000000000000000000000000000000000815280612cbf60048201612c67565b0390fd5b612cce610100610411565b90565b612cda916113bc565b90565b90612da060e06007612da694612d0260008201612cfc60008801611411565b9061167d565b612d1b60018201612d1560208801611411565b9061167d565b612d3460028201612d2e60408801611411565b9061167d565b612d4d60038201612d47606088016116c6565b90611733565b612d6660048201612d60608088016112b0565b906116a6565b612d7f60058201612d7960a088016112b0565b906116a6565b612d9860068201612d9260c08801611411565b9061167d565b019201611411565b9061167d565b565b90612db291612cdd565b565b612df4612dd26003612dcc6002604086015190612759565b01611a68565b612ded612de7612de26000612c19565b61019e565b9161019e565b1415612c80565b612e2a33612e24612e1e612e196007612e1360006020890151906113d6565b01611a68565b61019e565b9161019e565b14611ad0565b612ef26000612ec981840151612ec085612eb76020820151612eae6040840151612ea5612e686003612e62600260408a015190612759565b01611a68565b91612e9c4295612e936080612e7f60608c016112b0565b9a01519b612e8b612cc3565b9e8f016112cb565b60208d016112cb565b60408b016112cb565b6060890161133f565b608087016112ce565b60a085016112ce565b60c083016112cb565b612edd612ed4611334565b60e083016112cb565b612eed6003600085015190612cd1565b612da8565b6020810151612f186003612f126000850151946040600291015190612759565b01611a68565b90612f61612f4f612f497f70931e44adfccf8e6fe5ff2bf605c2ebb5556dfcfafed4ce0218603ce9876eb7936118cf565b93611724565b93612f58610170565b91829182611b51565b0390a3565b612f71610100610411565b90565b612f7c612f66565b9060208080808080808089612f8f612419565b815201612f9a612419565b815201612fa5612419565b815201612fb061241e565b815201612fbb612423565b815201612fc6612423565b815201612fd1612419565b815201612fdc612419565b81525050565b612fea612f74565b90565b906130b66130ad6007612ffe612f66565b9461301761300e60008301611cdd565b600088016112cb565b61302f61302660018301611cdd565b602088016112cb565b61304761303e60028301611cdd565b604088016112cb565b61305f61305660038301611a68565b6060880161133f565b61307761306e60048301611bf8565b608088016112ce565b61308f61308660058301611bf8565b60a088016112ce565b6130a761309e60068301611cdd565b60c088016112cb565b01611cdd565b60e084016112cb565b565b6130c190612fed565b90565b6130db6130e0916130d3612fe2565b506003612cd1565b6130b8565b90565b60207f6f6e000000000000000000000000000000000000000000000000000000000000917f4f6e6c792061646d696e2063616e20706572666f726d2074686973206163746960008201520152565b61313e6022604092610ba3565b613147816130e3565b0190565b6131619060208101906000818303910152613131565b90565b1561316b57565b613173610170565b7f08c379a0000000000000000000000000000000000000000000000000000000008152806131a36004820161314b565b0390fd5b6131d5906131d0336131ca6131c46131bf6004611a68565b61019e565b9161019e565b14613164565b613275565b565b60007f496e76616c69642061646d696e20616464726573730000000000000000000000910152565b61320c6015602092610ba3565b613215816131d7565b0190565b61322f90602081019060008183039101526131ff565b90565b1561323957565b613241610170565b7f08c379a00000000000000000000000000000000000000000000000000000000081528061327160048201613219565b0390fd5b6132fa9061329f8161329861329261328d6000612c19565b61019e565b9161019e565b1415613232565b6132a96004611a68565b816132dd6132d77f7e644d79422f17c01e4894b5f4f588d331ebfa28653d42ae832dc59e38c9798f93611724565b91611724565b916132e6610170565b806132f0816101ed565b0390a36004611733565b565b613305906131a7565b565b613335906133303361332a61332461331f6004611a68565b61019e565b9161019e565b14613164565b61349f565b565b60007f496e76616c696420656e74697479206164647265737300000000000000000000910152565b61336c6016602092610ba3565b61337581613337565b0190565b61338f906020810190600081830391015261335f565b90565b1561339957565b6133a1610170565b7f08c379a0000000000000000000000000000000000000000000000000000000008152806133d160048201613379565b0390fd5b90565b600052602060002090565b5490565b6133f0816133e3565b82101561340b576134026001916133d8565b91020190600090565b61026c565b9190600861343e91029161343873ffffffffffffffffffffffffffffffffffffffff84611483565b92611483565b9181191691161790565b919061345e61345961346693611724565b611730565b908354613410565b9055565b908154916801000000000000000083101561349a5782613492916001613498950181556133e7565b90613448565b565b6103b9565b6134c5816134be6134b86134b36000612c19565b61019e565b9161019e565b1415613392565b6134d96134d260056133d5565b829061346a565b6135037fd900914105d2687a75a707cd12ecd9fa52b6e70266117a9e338c3211ac63a2af91611724565b9061350c610170565b80613516816101ed565b0390a2565b61352490613307565b565b6135549061354f3361354961354361353e6004611a68565b61019e565b9161019e565b14613164565b613556565b565b6135807fbfd45d58db1be31172c5c63ca7233ccf75fb901a4ecfea355858519e8bad5b7091611724565b90613589610170565b80613593816101ed565b0390a2565b6135a190613526565b565b6135d1906135cc336135c66135c06135bb6004611a68565b61019e565b9161019e565b14613164565b613627565b565b90565b6135ea6135e56135ef926135d3565b6114b0565b610226565b90565b61360161360791939293610226565b92610226565b91613613838202610226565b92818404149015171561362257565b61249a565b6136406136479161363a620151806135d6565b906135f2565b60066116a6565b565b613652906135a3565b565b6136829061367d3361367761367161366c6004611a68565b61019e565b9161019e565b14613164565b613684565b565b61368f816007612173565b6136c57fe5195299917ec12125b179825feed000e498d8ca2f42eacb2eaaf2394024312a916136bc610170565b918291826106c3565b0390a1565b6136d390613654565b56fea264697066735822122069c04d07ba11399825c52eec72e9edf74d1b85e42a26809f6b888ab35306a3ac64736f6c63430008150033",
  "immutableReferences": {},
  "source": "// SPDX-License-Identifier: MIT\npragma solidity ^0.8.21;\n\ncontract TendekoStorage {\n    struct Tender {\n        string tenderID;\n        string title;\n        uint256 closingDate;\n        uint256 valueAmount;\n        string valueCurrency;\n        string status;\n        string hashOfDetails;\n        address procuringEntity;\n        bool isEvaluated;\n    }\n    \n    struct Bid {\n        string bidID;\n        string tenderID;\n        address supplier;\n        uint256 bidAmount;\n        uint256 timestamp;\n        string hashOfDocuments;\n        bool isWinningBid;\n    }\n    \n    struct Award {\n        string awardID;\n        string tenderID;\n        string bidID;\n        address supplier;\n        uint256 awardDate;\n        string hashOfEvaluation;\n    }\n    \n    struct Contract {\n        string contractID;\n        string tenderID;\n        string awardID;\n        address supplier;\n        uint256 contractDate;\n        uint256 contractValue;\n        string hashOfContract;\n        string status;\n    }\n\n    struct TenderInput {\n        string tenderID;\n        string title;\n        uint256 closingDate;\n        uint256 valueAmount;\n        string valueCurrency;\n        string hashOfDetails;\n    }\n\n    struct BidInput {\n        string tenderID;\n        string bidID;\n        uint256 bidAmount;\n        string hashOfDocuments;\n    }\n\n    struct AwardInput {\n        string tenderID;\n        string awardID;\n        string bidID;\n        address supplier;\n        string hashOfEvaluation;\n    }\n\n    struct ContractInput {\n        string contractID;\n        string tenderID;\n        string awardID;\n        uint256 contractValue;\n        string hashOfContract;\n    }\n\n    // Storage\n    mapping(string => Tender) internal tenders;\n    mapping(string => Bid[]) internal tenderBids;\n    mapping(string => Award) internal awards;\n    mapping(string => Contract) internal contracts;\n    \n    // Events\n    event TenderCreated(string indexed tenderID, string title, uint256 closingDate);\n    event BidSubmitted(string indexed tenderID, string bidID, address indexed supplier);\n    event TenderAwarded(string indexed tenderID, string awardID, address indexed supplier);\n    event ContractSigned(string indexed tenderID, string contractID, address indexed supplier);\n    event TenderStatusUpdated(string indexed tenderID, string status);\n}\n\ncontract TendekoTenderManagement is TendekoStorage {\n    modifier onlyProcuringEntity(string memory tenderID) {\n        require(msg.sender == tenders[tenderID].procuringEntity, \"Not authorized\");\n        _;\n    }\n\n    function createTender(TenderInput memory input) external {\n        tenders[input.tenderID] = Tender({\n            tenderID: input.tenderID,\n            title: input.title,\n            closingDate: input.closingDate,\n            valueAmount: input.valueAmount,\n            valueCurrency: input.valueCurrency,\n            status: \"ACTIVE\",\n            hashOfDetails: input.hashOfDetails,\n            procuringEntity: msg.sender,\n            isEvaluated: false\n        });\n        emit TenderCreated(input.tenderID, input.title, input.closingDate);\n    }\n\n    function updateTenderStatus(string memory _tenderID, string memory _status) \n        external \n        onlyProcuringEntity(_tenderID) \n    {\n        tenders[_tenderID].status = _status;\n        emit TenderStatusUpdated(_tenderID, _status);\n    }\n\n    function getTender(string memory tenderID) external view returns (\n        string memory tenderID_,\n        string memory title,\n        uint256 closingDate,\n        uint256 valueAmount,\n        string memory valueCurrency,\n        string memory status,\n        string memory hashOfDetails,\n        address procuringEntity,\n        bool isEvaluated\n    ) {\n        Tender storage tender = tenders[tenderID];\n        \n        return (\n            tender.tenderID,\n            tender.title,\n            tender.closingDate,\n            tender.valueAmount,\n            tender.valueCurrency,\n            tender.status,\n            tender.hashOfDetails,\n            tender.procuringEntity,\n            tender.isEvaluated\n        );\n    }\n\n    function getBidsForTender(string memory tenderID) external view returns (Bid[] memory) {\n        return tenderBids[tenderID];\n    }\n}\n\ncontract TendekoBidManagement is TendekoStorage {\n    function submitBid(BidInput memory input) external {\n        require(tenders[input.tenderID].closingDate > block.timestamp, \"Tender closed\");\n        require(bytes(tenders[input.tenderID].status).length > 0, \"Tender doesn't exist\");\n        \n        tenderBids[input.tenderID].push(Bid({\n            bidID: input.bidID,\n            tenderID: input.tenderID,\n            supplier: msg.sender,\n            bidAmount: input.bidAmount,\n            timestamp: block.timestamp,\n            hashOfDocuments: input.hashOfDocuments,\n            isWinningBid: false\n        }));\n        emit BidSubmitted(input.tenderID, input.bidID, msg.sender);\n    }\n\n    function getBid(string memory tenderID, string memory bidID) external view returns (Bid memory) {\n        Bid[] memory bids = tenderBids[tenderID];\n        for (uint i = 0; i < bids.length; i++) {\n            if (keccak256(abi.encodePacked(bids[i].bidID)) == keccak256(abi.encodePacked(bidID))) {\n                return bids[i];\n            }\n        }\n        revert(\"Bid not found\");\n    }\n}\n\ncontract TendekoAwardManagement is TendekoStorage {\n    function awardTender(AwardInput memory input) external {\n        require(!tenders[input.tenderID].isEvaluated, \"Already evaluated\");\n        require(msg.sender == tenders[input.tenderID].procuringEntity, \"Not authorized\");\n        \n        awards[input.awardID] = Award({\n            awardID: input.awardID,\n            tenderID: input.tenderID,\n            bidID: input.bidID,\n            supplier: input.supplier,\n            awardDate: block.timestamp,\n            hashOfEvaluation: input.hashOfEvaluation\n        });\n        \n        tenders[input.tenderID].isEvaluated = true;\n        tenders[input.tenderID].status = \"COMPLETED\";\n        \n        emit TenderAwarded(input.tenderID, input.awardID, input.supplier);\n        emit TenderStatusUpdated(input.tenderID, \"COMPLETED\");\n    }\n\n    function getAward(string memory awardID) external view returns (Award memory) {\n        return awards[awardID];\n    }\n}\n\ncontract TendekoContractManagement is TendekoStorage {\n    function createContract(ContractInput memory input) external {\n        require(awards[input.awardID].supplier != address(0), \"Award doesn't exist\");\n        require(msg.sender == tenders[input.tenderID].procuringEntity, \"Not authorized\");\n        \n        contracts[input.contractID] = Contract({\n            contractID: input.contractID,\n            tenderID: input.tenderID,\n            awardID: input.awardID,\n            supplier: awards[input.awardID].supplier,\n            contractDate: block.timestamp,\n            contractValue: input.contractValue,\n            hashOfContract: input.hashOfContract,\n            status: \"ACTIVE\"\n        });\n        emit ContractSigned(input.tenderID, input.contractID, awards[input.awardID].supplier);\n    }\n\n    function getContract(string memory contractID) external view returns (Contract memory) {\n        return contracts[contractID];\n    }\n}\n\ncontract TendekoEProcurement is TendekoTenderManagement, TendekoBidManagement, TendekoAwardManagement, TendekoContractManagement {\n    address public admin;\n    address[] public authorizedEntities;\n    uint256 public minBidTimeWindow = 7 days; \n    bool public systemActive = true;\n    \n    event AdminChanged(address indexed previousAdmin, address indexed newAdmin);\n    event EntityAuthorized(address indexed entity);\n    event EntityDeauthorized(address indexed entity);\n    event SystemStatusChanged(bool active);\n    \n    modifier onlyAdmin() {\n        require(msg.sender == admin, \"Only admin can perform this action\");\n        _;\n    }\n    \n    constructor(address _initialAdmin) {\n        require(_initialAdmin != address(0), \"Invalid admin address\");\n        admin = _initialAdmin;\n        authorizedEntities.push(_initialAdmin); // Admin is an authorized entity by default\n        emit AdminChanged(address(0), _initialAdmin);\n        emit EntityAuthorized(_initialAdmin);\n    }\n    \n    // Admin functions to manage the system\n    function changeAdmin(address _newAdmin) external onlyAdmin {\n        require(_newAdmin != address(0), \"Invalid admin address\");\n        emit AdminChanged(admin, _newAdmin);\n        admin = _newAdmin;\n    }\n    \n    function authorizeEntity(address _entity) external onlyAdmin {\n        require(_entity != address(0), \"Invalid entity address\");\n        // Add logic to check if entity already exists\n        authorizedEntities.push(_entity);\n        emit EntityAuthorized(_entity);\n    }\n    \n    function deauthorizeEntity(address _entity) external onlyAdmin {\n        // Add logic to remove entity from authorizedEntities array\n        emit EntityDeauthorized(_entity);\n    }\n    \n    function setMinBidTimeWindow(uint256 _days) external onlyAdmin {\n        minBidTimeWindow = _days * 1 days;\n    }\n    \n    function toggleSystem(bool _active) external onlyAdmin {\n        systemActive = _active;\n        emit SystemStatusChanged(_active);\n    }\n\n}\n",
  "sourcePath": "/Users/munashenzira/Documents/Tendeko/smart_contract/contracts/TendekoEProcurement.sol",
  "compiler": {
    "name": "solc",
    "version": "0.8.21+commit.d9974bed.Emscripten.clang"
  },
  "schemaVersion": "3.4.16",
  "updatedAt": "2025-05-04T19:33:26.562Z",
  "networkType": "ethereum",
  "devdoc": {
    "kind": "dev",
    "methods": {},
    "version": 1
  },
  "userdoc": {
    "kind": "user",
    "methods": {},
    "version": 1
  }
}