{
  "contractName": "TendekoAwardManagement",
  "abi": [
    {
      "anonymous": false,
      "inputs": [
        {
          "indexed": true,
          "internalType": "string",
          "name": "tenderID",
          "type": "string"
        },
        {
          "indexed": false,
          "internalType": "string",
          "name": "bidID",
          "type": "string"
        },
        {
          "indexed": true,
          "internalType": "address",
          "name": "supplier",
          "type": "address"
        }
      ],
      "name": "BidSubmitted",
      "type": "event"
    },
    {
      "anonymous": false,
      "inputs": [
        {
          "indexed": true,
          "internalType": "string",
          "name": "tenderID",
          "type": "string"
        },
        {
          "indexed": false,
          "internalType": "string",
          "name": "contractID",
          "type": "string"
        },
        {
          "indexed": true,
          "internalType": "address",
          "name": "supplier",
          "type": "address"
        }
      ],
      "name": "ContractSigned",
      "type": "event"
    },
    {
      "anonymous": false,
      "inputs": [
        {
          "indexed": true,
          "internalType": "string",
          "name": "tenderID",
          "type": "string"
        },
        {
          "indexed": false,
          "internalType": "string",
          "name": "awardID",
          "type": "string"
        },
        {
          "indexed": true,
          "internalType": "address",
          "name": "supplier",
          "type": "address"
        }
      ],
      "name": "TenderAwarded",
      "type": "event"
    },
    {
      "anonymous": false,
      "inputs": [
        {
          "indexed": true,
          "internalType": "string",
          "name": "tenderID",
          "type": "string"
        },
        {
          "indexed": false,
          "internalType": "string",
          "name": "title",
          "type": "string"
        },
        {
          "indexed": false,
          "internalType": "uint256",
          "name": "closingDate",
          "type": "uint256"
        }
      ],
      "name": "TenderCreated",
      "type": "event"
    },
    {
      "anonymous": false,
      "inputs": [
        {
          "indexed": true,
          "internalType": "string",
          "name": "tenderID",
          "type": "string"
        },
        {
          "indexed": false,
          "internalType": "string",
          "name": "status",
          "type": "string"
        }
      ],
      "name": "TenderStatusUpdated",
      "type": "event"
    },
    {
      "inputs": [
        {
          "components": [
            {
              "internalType": "string",
              "name": "tenderID",
              "type": "string"
            },
            {
              "internalType": "string",
              "name": "awardID",
              "type": "string"
            },
            {
              "internalType": "string",
              "name": "bidID",
              "type": "string"
            },
            {
              "internalType": "address",
              "name": "supplier",
              "type": "address"
            },
            {
              "internalType": "string",
              "name": "hashOfEvaluation",
              "type": "string"
            }
          ],
          "internalType": "struct TendekoStorage.AwardInput",
          "name": "input",
          "type": "tuple"
        }
      ],
      "name": "awardTender",
      "outputs": [],
      "stateMutability": "nonpayable",
      "type": "function"
    },
    {
      "inputs": [
        {
          "internalType": "string",
          "name": "awardID",
          "type": "string"
        }
      ],
      "name": "getAward",
      "outputs": [
        {
          "components": [
            {
              "internalType": "string",
              "name": "awardID",
              "type": "string"
            },
            {
              "internalType": "string",
              "name": "tenderID",
              "type": "string"
            },
            {
              "internalType": "string",
              "name": "bidID",
              "type": "string"
            },
            {
              "internalType": "address",
              "name": "supplier",
              "type": "address"
            },
            {
              "internalType": "uint256",
              "name": "awardDate",
              "type": "uint256"
            },
            {
              "internalType": "string",
              "name": "hashOfEvaluation",
              "type": "string"
            }
          ],
          "internalType": "struct TendekoStorage.Award",
          "name": "",
          "type": "tuple"
        }
      ],
      "stateMutability": "view",
      "type": "function"
    }
  ],
  "bytecode": "0x60806040523461001f57610011610024565b611132610030823961113290f35b61002a565b60405190565b600080fdfe60806040526004361015610013575b61049c565b61001e60003561003d565b806341ed2a37146100385763c9d949ab0361000e57610467565b6102e4565b7c0100000000000000000000000000000000000000000000000000000000900490565b60405190565b600080fd5b600080fd5b600080fd5b600080fd5b601f801991011690565b7f4e487b7100000000000000000000000000000000000000000000000000000000600052604160045260246000fd5b906100bd9061007a565b810190811067ffffffffffffffff8211176100d757604052565b610084565b906100ef6100e8610060565b92836100b3565b565b600080fd5b600080fd5b600080fd5b67ffffffffffffffff811161011e5761011a60209161007a565b0190565b610084565b90826000939282370152565b9092919261014461013f82610100565b6100dc565b938185526020850190828401116101605761015e92610123565b565b6100fb565b9080601f83011215610183578160206101809335910161012f565b90565b6100f6565b73ffffffffffffffffffffffffffffffffffffffff1690565b6101aa90610188565b90565b6101b6816101a1565b036101bd57565b600080fd5b905035906101cf826101ad565b565b91909160a0818403126102a3576101e860a06100dc565b92600082013567ffffffffffffffff811161029e5781610209918401610165565b6000850152602082013567ffffffffffffffff8111610299578161022e918401610165565b6020850152604082013567ffffffffffffffff81116102945781610253918401610165565b604085015261026581606084016101c2565b6060850152608082013567ffffffffffffffff811161028f576102889201610165565b6080830152565b6100f1565b6100f1565b6100f1565b6100f1565b610075565b906020828203126102d957600082013567ffffffffffffffff81116102d4576102d192016101d1565b90565b610070565b61006b565b60000190565b34610312576102fc6102f73660046102a8565b610d12565b610304610060565b8061030e816102de565b0390f35b610066565b9060208282031261034857600082013567ffffffffffffffff8111610343576103409201610165565b90565b610070565b61006b565b5190565b60209181520190565b60005b83811061036e575050906000910152565b80602091830151818501520161035d565b61039e6103a76020936103ac936103958161034d565b93848093610351565b9586910161035a565b61007a565b0190565b6103b9906101a1565b9052565b90565b6103c9906103bd565b9052565b61044b9160a06104166104046103f260c085016000870151868203600088015261037f565b6020860151858203602087015261037f565b6040850151848203604086015261037f565b92610429606082015160608501906103b0565b61043b608082015160808501906103c0565b01519060a081840391015261037f565b90565b61046491602082019160008184039101526103cd565b90565b346104975761049361048261047d366004610317565b6110dd565b61048a610060565b9182918261044e565b0390f35b610066565b600080fd5b905090565b6104cb6104c2926020926104b98161034d565b948580936104a1565b9384910161035a565b0190565b90565b6104de6104e3916103bd565b6104cf565b9052565b6104f76104fe91602094936104a6565b80926104d2565b0190565b61051661050d610060565b928392836104e7565b03902090565b61052591610502565b90565b74010000000000000000000000000000000000000000900490565b60ff1690565b61055561055a91610528565b610543565b90565b6105679054610549565b90565b151590565b60209181520190565b60007f416c7265616479206576616c7561746564000000000000000000000000000000910152565b6105ad601160209261056f565b6105b681610578565b0190565b6105d090602081019060008183039101526105a0565b90565b156105da57565b6105e2610060565b7f08c379a000000000000000000000000000000000000000000000000000000000815280610612600482016105ba565b0390fd5b6001900490565b73ffffffffffffffffffffffffffffffffffffffff1690565b61064261064791610616565b61061d565b90565b6106549054610636565b90565b60007f4e6f7420617574686f72697a6564000000000000000000000000000000000000910152565b61068c600e60209261056f565b61069581610657565b0190565b6106af906020810190600081830391015261067f565b90565b156106b957565b6106c1610060565b7f08c379a0000000000000000000000000000000000000000000000000000000008152806106f160048201610699565b0390fd5b6106ff90516101a1565b90565b61070c60c06100dc565b90565b52565b9061071c906101a1565b9052565b9061072a906103bd565b9052565b61073791610502565b90565b5190565b7f4e487b7100000000000000000000000000000000000000000000000000000000600052602260045260246000fd5b906001600283049216801561078d575b602083101461078857565b61073e565b91607f169161077d565b600052602060002090565b601f602091010490565b60020a0290565b919060086107cf9102916107c9600019846107ac565b926107ac565b9181191691161790565b90565b6107f06107eb6107f5926103bd565b6107d9565b6103bd565b90565b90565b919061081161080c610819936107dc565b6107f8565b9083546107b3565b9055565b600090565b6108349161082e61081d565b916107fb565b565b5b818110610842575050565b806108506000600193610822565b01610837565b9190601f8111610866575b505050565b61087261089793610797565b90602061087e846107a2565b8301931061089f575b610890906107a2565b0190610836565b388080610861565b915061089081929050610887565b60020a900490565b906108c690600019906008026108ad565b191690565b816108d5916108b5565b906002021790565b906108e78161034d565b9067ffffffffffffffff82116109a95761090b82610905855461076d565b85610856565b602090601f83116001146109405791809161092f93600092610934575b50506108cb565b90555b565b90915001513880610928565b601f1983169161094f85610797565b9260005b81811061099157509160029391856001969410610977575b50505002019055610932565b610987910151601f8416906108b5565b905538808061096b565b91936020600181928787015181550195019201610953565b610084565b906109b8916108dd565b565b60010290565b906109df73ffffffffffffffffffffffffffffffffffffffff916109ba565b9181191691161790565b6109fd6109f8610a0292610188565b6107d9565b610188565b90565b610a0e906109e9565b90565b610a1a90610a05565b90565b90565b90610a35610a30610a3c92610a11565b610a1d565b82546109c0565b9055565b610a4a90516103bd565b90565b90610a5a600019916109ba565b9181191691161790565b90610a79610a74610a80926107dc565b6107f8565b8254610a4d565b9055565b90610b1560a06005610b1b94610aa960008201610aa36000880161073a565b906109ae565b610ac260018201610abc6020880161073a565b906109ae565b610adb60028201610ad56040880161073a565b906109ae565b610af460038201610aee606088016106f5565b90610a20565b610b0d60048201610b0760808801610a40565b90610a64565b01920161073a565b906109ae565b565b90610b2791610a84565b565b740100000000000000000000000000000000000000000290565b90610b6374ff000000000000000000000000000000000000000091610b29565b9181191691161790565b610b769061056a565b90565b90565b90610b91610b8c610b9892610b6d565b610b79565b8254610b43565b9055565b600052602060002090565b9190601f8111610bb7575b505050565b610bc3610be893610b9c565b906020610bcf846107a2565b83019310610bf0575b610be1906107a2565b0190610836565b388080610bb2565b9150610be181929050610bd8565b610c136009610c0d835461076d565b83610ba7565b60127f434f4d504c455445440000000000000000000000000000000000000000000000019055565b610c4490610bfe565b565b610c4f916104a6565b90565b610c6790610c5e610060565b91829182610c46565b03902090565b610c8c610c95602093610c9a93610c838161034d565b9384809361056f565b9586910161035a565b61007a565b0190565b610cb49160208201916000818403910152610c6d565b90565b60007f434f4d504c455445440000000000000000000000000000000000000000000000910152565b610cec600960209261056f565b610cf581610cb7565b0190565b610d0f9060208101906000818303910152610cdf565b90565b600090610d3f610d3a610d346007610d2e86878701519061051c565b0161055d565b1561056a565b6105d3565b610d7333610d6d610d67610d626007610d5c88898901519061051c565b0161064a565b6101a1565b916101a1565b146106b2565b610dfd6020820151610de884840151610ddf6040860151610dd6610d99606089016106f5565b610dcd4293610dc460808c015197610dbb610db2610702565b9b8f8d0161070f565b60208b0161070f565b6040890161070f565b60608701610712565b60808501610720565b60a0830161070f565b610df8600260208501519061072e565b610b1d565b610e1860016007610e1285868601519061051c565b01610b7c565b610e316005610e2b84858501519061051c565b01610c3b565b81810151602082015190610e47606084016106f5565b90610e90610e7e610e787fbfe0f333d62c034072f781f38d906cac586c0304c5e487bb6660024cbee93ffe93610c52565b93610a11565b93610e87610060565b91829182610c9e565b0390a30151610ebf7f14fa414b4bcec7f1b2b9919714819414dd5cd58dffa8b56430419db62520112991610c52565b90610ec8610060565b80610ed281610cf9565b0390a2565b610ee160c06100dc565b90565b606090565b600090565b600090565b610efb610ed7565b906020808080808087610f0c610ee4565b815201610f17610ee4565b815201610f22610ee4565b815201610f2d610ee9565b815201610f38610eee565b815201610f43610ee4565b81525050565b610f51610ef3565b90565b9060009291805490610f6f610f688361076d565b8094610351565b91600181169081600014610fc85750600114610f8b575b505050565b610f989192939450610797565b916000925b818410610fb05750500190388080610f86565b60018160209295939554848601520191019290610f9d565b92949550505060ff1916825215156020020190388080610f86565b90610fed91610f54565b90565b9061101061100992611000610060565b93848092610fe3565b03836100b3565b565b90565b61102161102691610616565b611012565b90565b6110339054611015565b90565b906110cf6110c66005611047610ed7565b9461106061105760008301610ff0565b6000880161070f565b61107861106f60018301610ff0565b6020880161070f565b61109061108760028301610ff0565b6040880161070f565b6110a861109f6003830161064a565b60608801610712565b6110c06110b760048301611029565b60808801610720565b01610ff0565b60a0840161070f565b565b6110da90611036565b90565b6110f46110f9916110ec610f49565b50600261072e565b6110d1565b9056fea2646970667358221220d081767014aaba61d9cd750a4f702ff28a764fe54aa7438d0051a344c488568664736f6c63430008150033",
  "immutableReferences": {},
  "source": "// SPDX-License-Identifier: MIT\npragma solidity ^0.8.21;\n\ncontract TendekoStorage {\n    struct Tender {\n        string tenderID;\n        string title;\n        uint256 closingDate;\n        uint256 valueAmount;\n        string valueCurrency;\n        string status;\n        string hashOfDetails;\n        address procuringEntity;\n        bool isEvaluated;\n    }\n    \n    struct Bid {\n        string bidID;\n        string tenderID;\n        address supplier;\n        uint256 bidAmount;\n        uint256 timestamp;\n        string hashOfDocuments;\n        bool isWinningBid;\n    }\n    \n    struct Award {\n        string awardID;\n        string tenderID;\n        string bidID;\n        address supplier;\n        uint256 awardDate;\n        string hashOfEvaluation;\n    }\n    \n    struct Contract {\n        string contractID;\n        string tenderID;\n        string awardID;\n        address supplier;\n        uint256 contractDate;\n        uint256 contractValue;\n        string hashOfContract;\n        string status;\n    }\n\n    struct TenderInput {\n        string tenderID;\n        string title;\n        uint256 closingDate;\n        uint256 valueAmount;\n        string valueCurrency;\n        string hashOfDetails;\n    }\n\n    struct BidInput {\n        string tenderID;\n        string bidID;\n        uint256 bidAmount;\n        string hashOfDocuments;\n    }\n\n    struct AwardInput {\n        string tenderID;\n        string awardID;\n        string bidID;\n        address supplier;\n        string hashOfEvaluation;\n    }\n\n    struct ContractInput {\n        string contractID;\n        string tenderID;\n        string awardID;\n        uint256 contractValue;\n        string hashOfContract;\n    }\n\n    // Storage\n    mapping(string => Tender) internal tenders;\n    mapping(string => Bid[]) internal tenderBids;\n    mapping(string => Award) internal awards;\n    mapping(string => Contract) internal contracts;\n    \n    // Events\n    event TenderCreated(string indexed tenderID, string title, uint256 closingDate);\n    event BidSubmitted(string indexed tenderID, string bidID, address indexed supplier);\n    event TenderAwarded(string indexed tenderID, string awardID, address indexed supplier);\n    event ContractSigned(string indexed tenderID, string contractID, address indexed supplier);\n    event TenderStatusUpdated(string indexed tenderID, string status);\n}\n\ncontract TendekoTenderManagement is TendekoStorage {\n    modifier onlyProcuringEntity(string memory tenderID) {\n        require(msg.sender == tenders[tenderID].procuringEntity, \"Not authorized\");\n        _;\n    }\n\n    function createTender(TenderInput memory input) external {\n        tenders[input.tenderID] = Tender({\n            tenderID: input.tenderID,\n            title: input.title,\n            closingDate: input.closingDate,\n            valueAmount: input.valueAmount,\n            valueCurrency: input.valueCurrency,\n            status: \"ACTIVE\",\n            hashOfDetails: input.hashOfDetails,\n            procuringEntity: msg.sender,\n            isEvaluated: false\n        });\n        emit TenderCreated(input.tenderID, input.title, input.closingDate);\n    }\n\n    function updateTenderStatus(string memory _tenderID, string memory _status) \n        external \n        onlyProcuringEntity(_tenderID) \n    {\n        tenders[_tenderID].status = _status;\n        emit TenderStatusUpdated(_tenderID, _status);\n    }\n\n    function getTender(string memory tenderID) external view returns (\n        string memory tenderID_,\n        string memory title,\n        uint256 closingDate,\n        uint256 valueAmount,\n        string memory valueCurrency,\n        string memory status,\n        string memory hashOfDetails,\n        address procuringEntity,\n        bool isEvaluated\n    ) {\n        Tender storage tender = tenders[tenderID];\n        \n        return (\n            tender.tenderID,\n            tender.title,\n            tender.closingDate,\n            tender.valueAmount,\n            tender.valueCurrency,\n            tender.status,\n            tender.hashOfDetails,\n            tender.procuringEntity,\n            tender.isEvaluated\n        );\n    }\n\n    function getBidsForTender(string memory tenderID) external view returns (Bid[] memory) {\n        return tenderBids[tenderID];\n    }\n}\n\ncontract TendekoBidManagement is TendekoStorage {\n    function submitBid(BidInput memory input) external {\n        require(tenders[input.tenderID].closingDate > block.timestamp, \"Tender closed\");\n        require(bytes(tenders[input.tenderID].status).length > 0, \"Tender doesn't exist\");\n        \n        tenderBids[input.tenderID].push(Bid({\n            bidID: input.bidID,\n            tenderID: input.tenderID,\n            supplier: msg.sender,\n            bidAmount: input.bidAmount,\n            timestamp: block.timestamp,\n            hashOfDocuments: input.hashOfDocuments,\n            isWinningBid: false\n        }));\n        emit BidSubmitted(input.tenderID, input.bidID, msg.sender);\n    }\n\n    function getBid(string memory tenderID, string memory bidID) external view returns (Bid memory) {\n        Bid[] memory bids = tenderBids[tenderID];\n        for (uint i = 0; i < bids.length; i++) {\n            if (keccak256(abi.encodePacked(bids[i].bidID)) == keccak256(abi.encodePacked(bidID))) {\n                return bids[i];\n            }\n        }\n        revert(\"Bid not found\");\n    }\n}\n\ncontract TendekoAwardManagement is TendekoStorage {\n    function awardTender(AwardInput memory input) external {\n        require(!tenders[input.tenderID].isEvaluated, \"Already evaluated\");\n        require(msg.sender == tenders[input.tenderID].procuringEntity, \"Not authorized\");\n        \n        awards[input.awardID] = Award({\n            awardID: input.awardID,\n            tenderID: input.tenderID,\n            bidID: input.bidID,\n            supplier: input.supplier,\n            awardDate: block.timestamp,\n            hashOfEvaluation: input.hashOfEvaluation\n        });\n        \n        tenders[input.tenderID].isEvaluated = true;\n        tenders[input.tenderID].status = \"COMPLETED\";\n        \n        emit TenderAwarded(input.tenderID, input.awardID, input.supplier);\n        emit TenderStatusUpdated(input.tenderID, \"COMPLETED\");\n    }\n\n    function getAward(string memory awardID) external view returns (Award memory) {\n        return awards[awardID];\n    }\n}\n\ncontract TendekoContractManagement is TendekoStorage {\n    function createContract(ContractInput memory input) external {\n        require(awards[input.awardID].supplier != address(0), \"Award doesn't exist\");\n        require(msg.sender == tenders[input.tenderID].procuringEntity, \"Not authorized\");\n        \n        contracts[input.contractID] = Contract({\n            contractID: input.contractID,\n            tenderID: input.tenderID,\n            awardID: input.awardID,\n            supplier: awards[input.awardID].supplier,\n            contractDate: block.timestamp,\n            contractValue: input.contractValue,\n            hashOfContract: input.hashOfContract,\n            status: \"ACTIVE\"\n        });\n        emit ContractSigned(input.tenderID, input.contractID, awards[input.awardID].supplier);\n    }\n\n    function getContract(string memory contractID) external view returns (Contract memory) {\n        return contracts[contractID];\n    }\n}\n\ncontract TendekoEProcurement is TendekoTenderManagement, TendekoBidManagement, TendekoAwardManagement, TendekoContractManagement {\n    address public admin;\n    address[] public authorizedEntities;\n    uint256 public minBidTimeWindow = 7 days; \n    bool public systemActive = true;\n    \n    event AdminChanged(address indexed previousAdmin, address indexed newAdmin);\n    event EntityAuthorized(address indexed entity);\n    event EntityDeauthorized(address indexed entity);\n    event SystemStatusChanged(bool active);\n    \n    modifier onlyAdmin() {\n        require(msg.sender == admin, \"Only admin can perform this action\");\n        _;\n    }\n    \n    constructor(address _initialAdmin) {\n        require(_initialAdmin != address(0), \"Invalid admin address\");\n        admin = _initialAdmin;\n        authorizedEntities.push(_initialAdmin); // Admin is an authorized entity by default\n        emit AdminChanged(address(0), _initialAdmin);\n        emit EntityAuthorized(_initialAdmin);\n    }\n    \n    // Admin functions to manage the system\n    function changeAdmin(address _newAdmin) external onlyAdmin {\n        require(_newAdmin != address(0), \"Invalid admin address\");\n        emit AdminChanged(admin, _newAdmin);\n        admin = _newAdmin;\n    }\n    \n    function authorizeEntity(address _entity) external onlyAdmin {\n        require(_entity != address(0), \"Invalid entity address\");\n        // Add logic to check if entity already exists\n        authorizedEntities.push(_entity);\n        emit EntityAuthorized(_entity);\n    }\n    \n    function deauthorizeEntity(address _entity) external onlyAdmin {\n        // Add logic to remove entity from authorizedEntities array\n        emit EntityDeauthorized(_entity);\n    }\n    \n    function setMinBidTimeWindow(uint256 _days) external onlyAdmin {\n        minBidTimeWindow = _days * 1 days;\n    }\n    \n    function toggleSystem(bool _active) external onlyAdmin {\n        systemActive = _active;\n        emit SystemStatusChanged(_active);\n    }\n\n}\n",
  "sourcePath": "/Users/munashenzira/Documents/Tendeko/smart_contract/contracts/TendekoEProcurement.sol",
  "compiler": {
    "name": "solc",
    "version": "0.8.21+commit.d9974bed.Emscripten.clang"
  },
  "schemaVersion": "3.4.16",
  "updatedAt": "2025-05-04T19:32:25.786Z",
  "devdoc": {
    "kind": "dev",
    "methods": {},
    "version": 1
  },
  "userdoc": {
    "kind": "user",
    "methods": {},
    "version": 1
  }
}